:020000040800F2
:1000000048CD002045010008C75000085B1A0008D1
:10001000C55000089D0400089D5F00080000000016
:10002000000000000000000000000000F15C00087B
:10003000050600080000000099530008F35C000862
:100040005F0100085F0100085F0100085F01000810
:100050005F0100085F0100085F0100085F01000800
:100060005F0100085F0100085F0100085F010008F0
:100070005F0100085F0100085F0100085F010008E0
:100080005F0100085F0100085F0100085F010008D0
:100090005F0100085F0100085F0100085F010008C0
:1000A0005F0100085F0100085F0100085F010008B0
:1000B0005F0100085F0100085F0100085F010008A0
:1000C0005F0100085F0100085F0100085F01000890
:1000D0005F0100085F0100085F0100085F01000880
:1000E0005F0100085F0100085F0100085F01000870
:1000F0005F0100085F0100085F0100085F01000860
:100100005F0100085F0100085F0100085F0100084F
:100110005F0100085F0100085F0100085F0100083F
:100120005F0100085F0100085F0100085F0100082F
:10013000DFF80CD000F060F9004800475163000878
:1001400048CD00200648804706480047FEE7FEE706
:10015000FEE7FEE7FEE7FEE7FEE7FEE7FEE7FEE777
:10016000815D000831010008202A04DB203A21FAD1
:1001700002F00021704721FA02F3D040C2F12002C0
:100180009140084319467047D2B201E000F8012BB4
:10019000491EFBD270470022F6E710B513460A4607
:1001A00004461946FFF7F0FF204610BD2DE9FE4F2B
:1001B00081EA030404F0004421F0004100944FF070
:1001C000000B23F0004350EA01045ED052EA03041E
:1001D0005BD0C3F30A54C1F30A552C44A4F2F334A0
:1001E0000194A0FB0254C1F3130141F48011C3F345
:1001F000130343F4801301FB024400FB034E840A03
:10020000970A44EA815447EA8357A4FB076802959A
:100210008D0A05FB07854FEA932C04FB0C54270538
:10022000029D4FEA065847EA1637B5EB08056EEB14
:10023000070C870E920E47EA811742EA8312A7FB4A
:100240000201B6EB0B0164EB00042B0D43EA0C3307
:100250005E1844EB1C50DA465146E7FB0201C5F339
:1002600013044FEA0B3343EA14534FEA0432019C60
:1002700043EA0603A4F10C040294009CCDE900B407
:1002800000F06CF803B0BDE8F08F00200146F9E7FC
:100290000EB540F2334102910021CDE900110A462A
:1002A0000B4600F05BF803B000BDC1F30A5210B575
:1002B000C1F3130140F2FF3341F480119A4201DA95
:1002C000002010BD40F233439A42A2F2334203DCD5
:1002D0005242FFF749FF10BD904010BD2DE9F05F7D
:1002E0000546002092469B468846064681464024A5
:1002F0001BE02846414647462246FFF735FF534656
:100300005A46C01A914110D311461846224600F0B1
:1003100085F82D1A67EB01084F462246012000217F
:1003200000F07CF817EB00094E41201EA4F10104F7
:10033000DFDC484631462A464346BDE8F09F10B50B
:10034000141E73F1000408DA401C41F100019218F8
:100350005B411A4301D120F0010010BD2DE9F04DA1
:1003600092469B4611B1B1FA81F202E0B0FA80F2F6
:100370002032904600F052F804460F4640EA0A0048
:1003800041EA0B0153465A46084313D0114653EA3B
:10039000010019D0C8F140025046FFF7E5FE0546BE
:1003A0000E4650465946424600F038F8084305D0FC
:1003B000012004E020463946BDE8F08D00200543C9
:1003C00046EAE0762C4337430A986305E40AA0EB3B
:1003D00008000022FD0A44EA47540A3002D50020F2
:1003E0000146E9E7010510196941DDE908450019F1
:1003F0006941BDE8F04DA2E7064C074D06E0E06814
:1004000040F0010394E8070098471034AC42F6D35B
:10041000FFF792FE3465000854650008202A04DBCB
:10042000203A00FA02F1002070479140C2F1200307
:1004300020FA03F3194390407047017E012901D04F
:1004400004F00FBF04F072BE70B50446C069002806
:1004500023D0606900F0D0F8E06900F07FF905462C
:10046000207E012803D1208A00F0AEF92082626943
:10047000A088E1885278401B891A628801EBD1710B
:1004800002EB6101228800EBD07002EB6000228A4F
:10049000E369BDE8704000F01FB870BDFEE7C0081A
:1004A000C002890840EA411040EAD20070470000CB
:1004B00070B51E461546044604F0A4FB04F042FC49
:1004C000034802E00680641CA4B2AC42FAD370BDBB
:1004D0000008006C01F092BB2DE9F0411C46164665
:1004E0000F4605460CE0234632463946284600F0C2
:1004F0001FF821787F2901D9A41C00E0641C054461
:1005000020780028EFD1A8B2BDE8F0812DE9F041B4
:100510001E46154607460C4606E03246214638463A
:10052000FFF7D8FF641CA4B2AC42F6D3BDE8F0815B
:100530002DE9FC41154D8046164628680F46846813
:1005400018787F2805D9188840BA00F01BF900E018
:100550000C462188814202D86188814202D2A1687A
:100560000029F5D122886168801A2A6811F8304084
:1005700004235278CDE9007603EBC00043460858C7
:10058000214605F040FD2046BDE8FC811800002012
:100590002DE9F0471E461546894682460024DFF8BD
:1005A0003480089F12E000BF09EB040081B250467E
:1005B00004F028FB04F0C6FB0020414602E00F8057
:1005C000401C80B2A842FAD3641CA4B2B442EBD35C
:1005D000BDE8F0870008006C014800687047000023
:1005E0001800002010B5044601F090FB2046BDE83D
:1005F000104001F033BA0000014908607047000064
:1006000018000020704710B50446FFF716FF20467B
:10061000BDE81040FFF718BF30B5B3F5804F05D0E7
:100620006FF0704140F82210002030BD8C690B68DB
:100630008D6823434C688989240144EA05242343B7
:1006400043EA014150F82230014C23401943E9E7C5
:100650000000F0CF30B50A6850F8223023F00103D3
:1006600040F822308C68204B4A68082C1ED0224368
:10067000D1E903452C4322434C6922438C69224330
:10068000CC6922430C6A22434C6A22438C6A22437F
:10069000CC6A22430C6B0968224350F821401C406D
:1006A00052EA040240F82120002030BDD1E9034580
:1006B00042F008022C4322434C6922438C692243B6
:1006C000CC6922430C6A22434C6A22438C6A22433F
:1006D000CC6A22430C6B0968224350F821401C402D
:1006E000224342F04002DDE78100F7FF30B5D1E957
:1006F000003443EA04138C688D89240244EA0544DB
:1007000023430C8A094D00EB820005EB045423437C
:100710000C7D6D0105EB0464896923430B4341683B
:1007200001F040410B434360002030BD0000F0FF6A
:100730000021094A01E0491C89B232F81130834294
:1007400002D00229F7D301E0022901D3202070470B
:1007500002EB4100408870473065000830B5044620
:1007600000250AE0204600F00FF8284485B22078E2
:100770007F2801D9A41C00E0641C20780028F1D156
:10078000284630BDFFF7D4BF0E4910B509688C6804
:1007900001787F2904D9008840BAFFF7F3FF02E00F
:1007A000084600E00C462188814202D861888142D7
:1007B00002D2A1680029F5D122886168801A11F857
:1007C000300010BD180000204FF6FF71081A704766
:1007D00070B5044600F042F90546601C02D004489A
:1007E0000078044400F03AF9401BA042FAD370BDEF
:1007F0000800002030B5174885B00168002927D1CE
:10080000012101601448416941F4807141614069EE
:10081000022400F48070049041F20100CDE900044C
:100820000325694603950D4800F01EF84FF68070C9
:10083000CDE9000469460395094800F015F84CF22B
:100840003370CDE9000469460395064800F00CF8C2
:1008500005B030BD00000020001002400020014023
:1008600000180140001401402DE9F84FDFF8B8A14D
:1008700000220AF1040B144601274FF00F090BF177
:10088000040E00BF0B6807FA04F52B40AB4274D18D
:10089000DFF898C14E68A6EB0C0866452BD00DDC3E
:1008A000032E34D005DC36B3012E19D0022E2FD101
:1008B0001BE0112E16D0122E2AD119E0B8F5881F90
:1008C00019D006DCB8F5803F15D0B8F5801F1FD1D0
:1008D00011E0B8F5001F0ED0B8F5041F18D10AE0DA
:1008E000CA6815E0CA68121D12E0CA6808320FE033
:1008F000CA680C320CE08A682AB1012A4FF008025B
:1009000003D0456104E0042202E0056100E000221A
:10091000FF2B01D8064601E000F104064FEA8405EA
:1009200001D9A5F12005D6F800C009FA05F82CEA8E
:10093000080C02FA05F54CEA050CC6F800C04D6833
:10094000ED006AD53A4DAE6946F00106AE61AD697B
:1009500024F0030605F001050095364D06EB050C65
:10096000DCF80850A6074FEA167809FA08F6B543EE
:10097000314EB04202D100261AE04EE02F4EB04276
:1009800001D1012614E02E4EB04201D102260FE023
:100990002C4EB04201D103260AE02B4EB04201D1C9
:1009A000042605E0294EB04201D1052600E00626C6
:1009B00006FA08F62E43CCF808604D68DAF80060B5
:1009C000ED03554601D51E4300E09E432E604D6861
:1009D000AD0305D5DBF800601E43CBF8006004E0F2
:1009E000DBF800509D43CBF800504D68DEF8006006
:1009F000ED02754601D51E4300E09E432E604D6812
:100A0000AD0205D5084D0C352E681E432E6004E05E
:100A1000054E0C3635689D433560641C102CFFF480
:100A200031AFBDE8F88F0000000401400000111054
:100A3000001002400000014000080140000C01408D
:100A4000001001400014014000180140001C01404A
:100A50000AB1016170470904FBE7000001488068A2
:100A600070470000080000200248816802781144A5
:100A70008160704708000020074810B5016841F008
:100A800010010160032000F091F8002000F006F84A
:100A900000F024F8002010BD0020024070B50D4D7C
:100AA00004464FF47A712878B1FBF0F00A490968DE
:100AB000B1FBF0F000F0FFFE48B9102C07D2002285
:100AC0002146501E00F052F800206C6070BD0120DD
:100AD00070BD00000800002014000020214808B567
:100AE000816941F001018161816901F00101009199
:100AF000C16941F08051C161C06900F0805000902F
:100B0000032000F053F8002211466FF00B0000F0B4
:100B10002DF8002211466FF00A0000F027F800229D
:100B200011466FF0090000F021F800221146501F15
:100B300000F01CF800221146101F00F017F80022E8
:100B40001146901E00F012F800221146501E00F0CF
:100B50000DF80548416821F0E06141F00071416005
:100B600008BD00000010024000000140F0B40E4B30
:100B70001B680C46C3F30223C3F10705042D00D9FB
:100B80000425191D072901D2002300E0DB1E0126E0
:100B900006FA05F1491E214099409E40761E1640F6
:100BA0003143F0BC04F090BA0CED00E0064900F0CF
:100BB000070208684FF6FF03184040EA0220034A84
:100BC00010430860704700000CED00E00000FA05DB
:100BD0002DE9F047DFF83C8105460E46D8F80000C5
:100BE00000F00700B0420CD2D8F8001021F0070145
:100BF0003143C8F80010D8F8000000F00700B042F8
:100C000063D12878444C800705D56068A96820F036
:100C1000F000084360602878C00745D06868012864
:100C200016D02168022816D0890700294DDA61689C
:100C300021F0030101436160FFF710FF6968074677
:100C400041F2883001290FD00229814619D027E0CE
:100C500021688903E9E78901E7E700BFFFF7FEFEA6
:100C6000C11B494501D918E081466068C0F3810085
:100C70000128F3D118E000BFFFF7F0FEC11B494582
:100C80000BD86068C0F381000228F5D10CE000BFEA
:100C9000FFF7E4FEC11B494502D90320BDE8F087F8
:100CA000606810F00C0FF3D1D8F80010404601F046
:100CB0000701B1420BD9016821F0070131430160FE
:100CC000006800F00700B04201D00120E6E7287874
:100CD000400705D56068E96820F4E060084360607B
:100CE0002878000706D56068296920F4605040EA3A
:100CF000C100606000F03CF86168084AC1F303116C
:100D0000515CC840064908600020FFF7C7FE00207C
:100D1000C4E700000020024000100240AC6400085C
:100D200014000020014800687047000014000020F3
:100D30000448054900684968044AC1F30221515C2E
:100D4000C84070471400002000100240BC64000836
:100D50000448054900684968044AC1F3C221515C4E
:100D6000C84070471400002000100240BC64000816
:100D700012A185B00FC98DE80F0014A0144A0068B5
:100D800004905168134801F00C03042B10D0082B79
:100D90000ED1C1F38343C9031DF803000AD551687E
:100DA00004AAC1F34041515C0A4A5043B0FBF1F040
:100DB00005B0704708494843FAE7000002030405FC
:100DC000060708090A0B0C0D0E0F10100102000097
:100DD0000010024000127A0000093D002DE9F84F92
:100DE00004460078B94DC00748D06868C0F3810058
:100DF000012807D06868C0F38100022809D168681B
:100E0000C00306D52868800338D5606800286FD0F5
:100E100034E06068B0F5803F0BD010B1B0F5A02F82
:100E200011D0286820F480302860286820F48020C1
:100E300002E0286840F480302860606888B1FFF7DD
:100E40000DFE064609E0286840F480202860F0E79F
:100E5000FFF704FE801B642875D828688003F7D547
:100E60000CE0FFF7FBFD064605E000BFFFF7F6FDCF
:100E7000801B6428F0D828688003F7D42078944E2B
:100E800080074FF001094FF000083BD5686810F06B
:100E90000C0F07D06868C0F38100022809D1686888
:100EA000C00306D42868800714D5206901281FD103
:100EB00010E02069B0B1C6F80090FFF7CFFD0746FB
:100EC00005E000BFFFF7CAFDC01B0228C4D8286890
:100ED0008007F7D52868616920F0F80040EAC10072
:100EE00028600FE0C6F80080FFF7B8FD074606E06F
:100EF000E9E000BFFFF7B2FDC01B022823D8286835
:100F00008007F7D4207800072CD57248A169D9B1A1
:100F1000C0F80090FFF7A2FD074604E0FFF79EFD32
:100F2000C01B02280FD8686A8007F7D56A484FF4BB
:100F3000FA510068B0FBF1F0009000BF0098411E2C
:100F40000091FAD20EE080E0C0F80080FFF786FD45
:100F5000074604E0FFF782FDC01B022875D8686AC7
:100F60008007F7D42078400760D5E8690027C000E3
:100F700008D4E86940F08050E861E869012700F092
:100F80008050009055480168C90513D40168834614
:100F900041F480710160FFF761FD824606E000BF09
:100FA000FFF75CFDA0EB0A0064284ED8DBF80000D8
:100FB000C005F5D5E06801280AD008B1052813D08E
:100FC000286A20F001002862286A20F0040002E06C
:100FD000286A40F001002862E06841F2883B98B13D
:100FE000FFF73CFD82460BE0286A40F004002862CF
:100FF000EEE700BFFFF732FDA0EB0A0159455AD8D2
:10100000286A8007F6D50CE0FFF728FD824605E048
:10101000FFF724FDA0EB0A0159454CD8286A800748
:10102000F6D41FB1E86920F08050E861E06988B328
:101030006968C1F38101022945D00228C6F86080A1
:1010400004D0FFF70BFD044638E034E0FFF706FD5F
:10105000074604E0FFF702FDC01B02282BD82868D2
:101060008001F7D4206AB0F5803F05D16868A16897
:1010700020F4003008436860D4E908010843696837
:1010800021F4741108436860C6F86090FFF7E6FC2D
:10109000044606E015E000BFFFF7E0FC001B022855
:1010A00009D828688001F7D50BE000BFFFF7D6FC10
:1010B000001B022802D90320BDE8F88F28688001B0
:1010C000F4D40020F8E70120F6E700000010024009
:1010D00000004242800442421400002000700040A0
:1010E000FEB5044603200D4684F83400606C0328E6
:1010F00020D0B5F5805F1DD0B5F5006F05D045B1A6
:10110000A06B40F00060A06309E0204604F0C9FD38
:1011100002E0204604F09EFDA16B0143A163A06B99
:10112000012658B1216840F2FF50886384F834608A
:101130000120FEBDA06B40F08050E4E7211DD4E902
:1011400005700EC90095CDE90170206804F041F9E1
:1011500084F834600020FEBD10B550F8742F120ED4
:101160000A7002684FF6FF73120C03EA02224A80EB
:101170000288C2F307234A881A434A80027812067B
:101180004A6042684B68120E43EA02424A60426873
:101190004B68C2F3074243EA02224A6082884B68E6
:1011A000C2F3072213434B6002790A728268120E5F
:1011B0004A728268120C1206CA600289CB68C2F3B6
:1011C000072243EA0242CA60027ACB6843EA02225B
:1011D000CA60C268CB6843EA1263CB60C2680B7C0A
:1011E000C2F3074243EA12130B741207120D4A822C
:1011F00082894B8AC2F3072213434B82007B40084B
:10120000087501204875002010BDF0B5426E120E21
:1012100093090B70C2F383034B7002F003028A70D0
:10122000426E120CCA70B0F86420120A0A7190F86B
:1012300064204A71826E4FF6FF73120E03EA0212A7
:10124000CA80826ECB88C2F3074243EA1213CB8076
:1012500002F00F020A72B0F86820C2F30722D30925
:101260004B72C2F380138B72C2F34013CB72C2F382
:1012700000130B7300264E73446C4FF40077012368
:101280006CB1012C43D0026840F2FF519163816B35
:1012900041F08051816380F834300120F0BD920725
:1012A000120D0A6190F868200C6944EA82020A6112
:1012B000C26E0C69120E44EA92140C61C2F3C204AD
:1012C0000C7502F007024A75C26EC2F30742540958
:1012D0008C75C2F38204CC759207520F0A76B0F86F
:1012E0006C20C2F307240A7E42EAD4120A760A6905
:1012F000521C42650D7EAD1CAA4042650D7A03FA70
:1013000005F585656D0A6A43C0E917271CE090F86A
:1013100068209206920A0A61C26E0C69120E44EAB3
:1013200002220A61C26E0C69C2F3074214430C61C7
:10133000B0F86C20C2F307240A69521C4FEA8222DB
:101340004265C0E916720766C4F3801201F8192FCE
:101350004FEA84624FEA52624A7010F86C2F4C7860
:1013600044EAD2144C7002F07F028A7042684FEA5D
:1013700012624FEAD214CC70C2F341140C71C2F362
:1013800082044C714FEA82724FEA12728A7142688B
:101390008C79C2F3074244EA92148C71C2F3401470
:1013A000CC710E7202F001024A728288C2F30722E7
:1013B0004FEAD2148C72C2F38014CC72C2F3401480
:1013C0000C73C2F300144C73C2F381048C7302F0EB
:1013D0000302CA7300794FEA500008744B744FF04F
:1013E0000000F0BD70B50446B0F8500000250104BF
:1013F000206804F06CF918B1A16B0143A16304E00B
:101400000021206803F0DFFF0546C5F3432070BDCF
:1014100070B5040004D094F83400002510B105E044
:10142000012070BD2577204600F038F8032084F8AD
:101430003400204600F008F8A5632563012084F8F5
:101440003400002070BD0000FEB500250446C32016
:101450000095CDE901502B462A462946206803F025
:10146000B8FF0D4E46F8A05F206803F0C4FF0125C9
:1014700035600220FFF7ACF9204604F09AFB20B952
:10148000204604F023FB002805D084F83450A16BDB
:101490000143A1630120FEBD0000304230B5006869
:1014A000104985B088421BD10F48416941F48061E1
:1014B00041614069022400F4806004904FF4F850C8
:1014C000CDE900040325694603950848FFF7CCF9E8
:1014D0000420CDE90004694603950548FFF7C4F9E7
:1014E00005B030BD008001400010024000100140F6
:1014F000001401402DE9F04F87B09A4617460E467A
:101500000446DDF840B0FFF7A9FA00903EB194F828
:101510003400012807D0A06B40F000500FE0A06B12
:1015200040F000600BE04FF00008C4F83880E06D38
:1015300007EB0A01814204D9A06B40F00070A06360
:101540007DE0032084F834002068C0F82C80606CB3
:10155000012800D07F024FF40071206803F09AFF49
:1015600040F2FF59012530B12268C2F83890A16BD2
:101570000143A16361E04FF0FF3001904FEA4A2040
:101580000290902003900220CDE90408069501A95D
:10159000206803F002FFBAF1010F06D90220206390
:1015A0003946206804F004F804E0256339462068D1
:1015B00004F017F80028D7D140F22A382068416B90
:1015C00011EA080F22D1406B000409D500272068DA
:1015D00003F015FF46F827007F1C082FF7D32036AD
:1015E000BBF1000F05D0FFF739FA0099411A5945B0
:1015F000E4D32168C1F83890A06B40F00040A063AC
:1016000084F83450032007B0BDE8F08F416BC90562
:1016100009D5BAF1010F06D9616C032903D004F092
:1016200087F80028A0D12068416B090709D5C0F8C8
:101630003890A06B40F0080028E084F83450012076
:10164000E1E7416B890705D5C0F83890A06B40F001
:1016500002001BE0416B89061AD5C0F83890A06BD8
:1016600040F0200012E000BF03F0C9FE01C6BBF14C
:10167000000F05D0FFF7F2F90099411A594507D339
:101680002168C1F83890A06B40F00040A063D4E717
:101690002068416B8902E7D42168C1F8389084F84A
:1016A00034500020AFE700002DE9F04F87B09A4694
:1016B00016460D460446FFF7D1F906903DB194F861
:1016C0003400012807D0A06B40F000500DE0A06B63
:1016D00040F0006009E00020A063E26D06EB0A0123
:1016E000914204D9A06B40F00070A06390E0032108
:1016F00084F8341021688146C862606C012800D0EB
:1017000076024FF40071206803F0C4FE40F2FF58E7
:10171000012730B12268C2F83880A16B0143A16370
:1017200017E0BAF1010F06D9202020633146206866
:1017300004F018F805E0102020633146206804F01A
:101740002AF8060008D02168C1F83880A06B304321
:10175000A06384F834705BE04FF0FF3000904FEAF4
:101760004A200190902002904846CDE90407CDF828
:101770000C90B9466946206803F00FFE40F21A3B10
:1017800022E0406B40040AD55FF0000705EB8701BB
:10179000206803F047FE7F1C082FF7D320351098F0
:1017A00030B1FFF75BF90699411A109881420BD3CB
:1017B0002168C1F83880A06B3043A06384F834906E
:1017C000032007B0BDE8F08F2068416B11EA0B0FD2
:1017D000D7D0416BC9050FD5BAF1010F0CD9616C97
:1017E000032909D003F0A4FF30B12268C2F8388081
:1017F000A16B0143A16309E02068416B090709D58A
:10180000C0F83880A06B40F0080014E084F83490F1
:101810000120D6E7416B890705D5C0F83880A06B59
:1018200040F0020007E0416BC0F83880C90604D5DB
:10183000A06B40F01000A063E8E784F8349000202B
:10184000BFE770B515460E46040003D094F83D007E
:1018500010B107E0012070BD002084F83C00204654
:1018600000F01AF804F108012068FEF7F3FE314693
:10187000A2682068FEF73AFFD4E901022946236BEB
:10188000FEF7CAFEA168206850F8212042F001024C
:1018900040F82120002070BDFEF7ACBF4FF0E021E2
:1018A0000428086903D020F004000861704740F064
:1018B0000400FAE7704710B5401EB0F1807F01D3F5
:1018C000012010BD4FF0E02460610F21601703F08C
:1018D000FBFB0020A06107202061002010BD10B597
:1018E000FFF7E8FF10BD70B5040004D094F839008C
:1018F000002510B106E0012070BD84F83850204664
:1019000000F022F8242084F839002068C16821F40E
:101910000051C160204604F057FA2068016921F4A3
:10192000904101612068416921F02A0141612068EC
:10193000C16841F40051C160E563202084F839009A
:1019400084F83A00002070BD10B50068114986B0D7
:1019500088421DD11048816941F4804181618069CC
:101960000E4C00F4804004904FF400700090022070
:1019700001900320039069462046FEF775FF002181
:101980002015CDE90001029169462046FEF76CFF63
:1019900006B010BD003801400010024000080140B0
:1019A0002DE9F843044690F839001F4616460D46C7
:1019B000202850D1A5B19EB194F8380001284AD012
:1019C000012084F838004FF00008C4F83C80212042
:1019D00084F83900FFF742F8A6848146E68426E0C1
:1019E0000120BDE8F883E08C401EE084A0684B46EF
:1019F000B0F5805F4FF000024FF080012046009765
:101A000003D004F099FAE8B90DE004F095FAC8B9EA
:101A100028882168C0F308004860206908B16D1C5F
:101A200005E0AD1C03E0216815F8010B4860E08C6F
:101A30000028D8D14B46002240212046009704F0D0
:101A40007BFA08B10320CCE7202084F8390084F821
:101A500038800020C5E70220C3E7FEE72DE9F04308
:101A6000174C81460025208866884643A088A0F54B
:101A7000D041043902D1A079012807D000210846BD
:101A800003F0C0F803F05EF90E4814E00020A071E6
:101A90002A2767814FF02B08A4F80C80014603F039
:101AA000B1F80120A071A4F80A80A781EAE700BF7D
:101AB000A0F800906D1CB542FAD3BDE8F083000099
:101AC000280100200008006C2DE9F04F4A492A2423
:101AD0002B25898845F2105A4FF4305B4FF4285E6D
:101AE0004FF448764FF0F00C49F241394FF4A073AF
:101AF00045F210374FF4F07280B13F484FF00108C3
:101B0000494580F806800380A0F802C001D0B942A0
:101B10003ED12C2606814481858157E036484FF01E
:101B20000008494580F80680A0F800C0438006D030
:101B3000A1F5D04CBCF1040C01D0B9420CD12C263B
:101B400006814481A1F5D0448581043C01D0B9428D
:101B500044D10380428041E0514507D1A0F808B04C
:101B6000A0F80AE04FF42C5181810EE0A1F5C85392
:101B7000633B06D0222101812021418121218181E5
:101B80002CE02C210181458184810280468025E062
:101B9000A1F5D04CBCF1040C09D051450BD1A0F8F3
:101BA00008B0A0F80AE04FF42C54848121E02C26E0
:101BB0000681458109E0A1F5C85CBCF1630C12D037
:101BC000222404812124448120248481A1F5D0444D
:101BD000043C01D0B94201D102804380BDE8F04FFE
:101BE000002002F03BBF4FF02C0CA0F808C044814D
:101BF000858106804280E9E7280100202DE9F04F29
:101C0000DFF800810C460146060A40469346B8F8C4
:101C10000450DFF8F4A08289230A4089A5F5134710
:101C20000AF10209413F19D0A5F5A647103F15D08A
:101C3000A5F5AA47103F15D04746A5F5C85CBE7963
:101C40003F887F1A7F1EBCF1630C20D0A5F5D04CD5
:101C5000BCF1040C33D0012E43D043E05546AAF822
:101C6000000033E0AAF80000A9F80060401CAAF8C0
:101C70000000C8B2A9F80000AAF80020A9F80030B6
:101C8000521CAAF80020E0B2A9F8000031E006B921
:101C9000B9B2AAF800000D0A4846A9F80050CFB220
:101CA000A9F80070A9F80050C9B2A9F80010AAF864
:101CB0000020A9F80030E1B2A9F800100DE0012ED3
:101CC00000D1B9B25546AAF800000E0A4846A9F854
:101CD0000060C9B2A9F800102A800380E1B2018037
:101CE00007E0B9B203F038F8B8F80C00214603F069
:101CF00033F8B8F80810AAF80010A9F800B0BDE849
:101D0000F08F000028010020FE07006C2DE9F05F35
:101D10003220FEF75DFD002002F07AFEFE4EFF4D00
:101D200049F24139AC1CB08046F6040A45F2103B3A
:101D300045F210574FF6FF78FF2804D3404502D0F4
:101D4000B0F5134F4AD1D3202880208820882188DD
:101D5000404608EA012221881143B18049453DD01F
:101D6000BF2129802188218821882188228800EAB2
:101D700001210A43B280524530D0D42129802188E4
:101D800021882188228800EA01210A43B2805A452D
:101D900024D04FF45A41298021884FF45B41298097
:101DA00021884FF45C4200EA01212A8022880A43FC
:101DB000B280B2F5004F7DD0BA420FD0A121298068
:101DC00021882188208808EA01210843A0F5AE4136
:101DD000B080613902D141F66310B080B188D0A0E3
:101DE00004F0F2F8B08848457ED1CF20288000204A
:101DF0002080C120208030202080ED202880642099
:101E00002080032020801220208081202080E82054
:101E1000288085202080102020807A202080CB20E0
:101E20002880392020802C20208000202080342011
:101E3000208002202080F720288020202080EA2097
:101E40002880002020802080C02028801B20208027
:101E5000C120288001202080C520288030202080BB
:101E60002080C7202880B720208036202880482066
:101E700020803A20288055202080B1202880002012
:101E800020801A202080B62028800A202080A220CE
:101E90002080F22028800020208026202880012019
:101EA0002080E02028800F2020802A2020802820E9
:101EB000208000E049E0082020800E2020800820BB
:101EC000208054202080A9202080432020800A20C8
:101ED00020800F20208000202080208020802080F3
:101EE000E1202880002000E031E0208015202080C3
:101EF00017202080072020801120208006202080AD
:101F00002B202080562020803C202080052020800F
:101F1000102020800F2020803F20208020800F2054
:101F200020802B20288000202080208001202080FD
:101F30003F2020802A2028800020208020802080B0
:101F4000EF202080112028806EE0B78046E75045C2
:101F500070D1112028801420FEF73AFCD020288070
:101F600007202080422020801D202080D120288032
:101F7000002020801A20208009202080D220288064
:101F80000120208022202080C02028801020208056
:101F90003B202080002020800220208011202080F3
:101FA000C520288003202080C82028800020208091
:101FB00025202080212020800520208000202080D6
:101FC0000A20208065202080252020807720208006
:101FD000502020800F20208000202080F8202880A2
:101FE00001202080FE2028800020208002202080E8
:101FF0002020288036202880082020803A20288031
:10200000552020802B202880002020802080012047
:1020100020803F2020802A202880002020802080CF
:1020200001202080DF2020807820FEF7D1FB2920AE
:10203000FEE3FFE758457BD1ED202880012020807A
:10204000FE202080EE202880DE202080212020809D
:10205000F120288001202080DF202880102020808F
:10206000C42028808F202080C62028800020208047
:10207000E220208020802080BF202880AA2020808D
:10208000B02028800D202080002020800D2020807E
:102090000020208011202080002020801920208016
:1020A0000020208021202080002020802D202080E2
:1020B000002020803D202080002020805D20208086
:1020C000002020805D20208000202080B1202880FA
:1020D00080202080002020808B20208000202080F5
:1020E0009620208000202080B220288000202080A0
:1020F00020800220208000202080032020800020DB
:102100002080B32028800020208020802080208014
:102110002080208020800CE028010020FE07006C39
:10212000204C43442049443A25780D0A0000000021
:10213000FEE320802080208020802080208020805E
:10214000208020802080208020802080208020808F
:1021500020802080B42028808B20208000202080B8
:102160009620208000202080A12020800020208038
:10217000B52028800220208000202080032020809D
:10218000002020800420208000202080B62028808D
:10219000002020802080B720288000202080208000
:1021A0003F202080002020805E2020800020208092
:1021B00064202080002020808C202080002020802F
:1021C000AC20208000202080DC2020800020208087
:1021D00070202080002020809020208000202080FF
:1021E000EB20208000202080DC2020800020208028
:1021F000B82028800020208020802080208020801F
:10220000208020802080BA20288024202080002068
:10221000208020802080C120288020202080002055
:1022200020805420208000202080FF20208000205B
:102230002080C22028800A202080002020800420C6
:10224000208000202080C32028803C202080002087
:1022500020803A202080002020803920208000200B
:10226000208037202080002020803C2020800020FB
:1022700020803620208000202080322020800020F6
:1022800020802F202080002020802C2020800020F3
:1022900020802920208000202080262020800020EF
:1022A00020802420208000202080242020800020E6
:1022B000208023202080002020803C2020800020BF
:1022C00020803620208000202080322020800020A6
:1022D00020802F202080002020802C2020800020A3
:1022E000208029202080002020802620208000209F
:1022F0002080242020800020208024202080002096
:1023000020802320208000202080C420288062207C
:102310002080002020800520208000202080842034
:10232000208000202080F0202080002020801820A5
:10233000208000202080A4202080002020801820E1
:1023400020800020208050202080002020800C2031
:1023500020800020208017202080002020809520D1
:10236000208000202080F320208000202080E62094
:10237000208000202080C52028803220208000205E
:1023800020804420208000202080652020800020A4
:10239000208076202080002020808820208000203F
:1023A0002080C62028802020208000202080172028
:1023B0002080002020800120208000202080C72055
:1023C000288000202080208020802080C820288035
:1023D00000202080208020802080C92028800020AC
:1023E00020802080208020802080208020802080ED
:1023F00020802080208020802080208020802080DD
:10240000E020288016202080002020801C202080B2
:102410000020208021202080002020803620208065
:102420000020208046202080002020805220208014
:102430000020208064202080002020807A202080BE
:10244000002020808B202080002020809920208068
:1024500000202080A820208000202080B92020801B
:1024600000202080C420208000202080CA202080DE
:1024700000202080D220208000202080D9202080B1
:1024800000202080E020208000202080F320208079
:1024900000202080E120288016202080002020803D
:1024A0001C202080002020802220208000202080EE
:1024B00036202080002020804520208000202080A1
:1024C0005220208000202080642020800020208056
:1024D0007A202080002020808B20208000202080F7
:1024E0009920208000202080A820208000202080AB
:1024F000B920208000202080C4202080002020805F
:10250000CA20208000202080D2202080002020802F
:10251000D820208000202080E02020800020208003
:10252000F320208000202080E220288005202080C9
:10253000002020800B202080002020801B20208075
:102540000020208034202080002020804420208013
:10255000002020804F2020800020208061202080CB
:10256000002020807920208000202080882020806A
:10257000002020809720208000202080A62020801E
:1025800000202080B720208000202080C2202080D2
:1025900000202080C720208000202080D1202080A3
:1025A00000202080D620208000202080DD20208078
:1025B00000202080F320208000202080E32028803D
:1025C00005202080002020800A20208000202080FC
:1025D0001C202080002020803320208000202080AC
:1025E0004420208000202080502020800020208057
:1025F0006220208000202080782020800020208001
:1026000088202080002020809720208000202080AB
:10261000A620208000202080B7202080002020805D
:10262000C220208000202080C72020800020208021
:10263000D120208000202080D520208000202080F4
:10264000DD20208000202080F320208000202080BA
:10265000E42028800120208000202080012020808C
:102660000020208002202080002020802A2020803E
:10267000002020803C202080002020804B202080D3
:10268000002020805D202080002020807420208079
:102690000020208084202080002020809320208023
:1026A00000202080A220208000202080B3202080D5
:1026B00000202080BE20208000202080C420208098
:1026C00000202080CD20208000202080D32020806A
:1026D00000202080DD20208000202080F32020802A
:1026E00000202080E520288000202080208020807D
:1026F00020800220208000202080292020800020AF
:1027000020803C202080002020804B202080002042
:1027100020805D20208000202080742020800020E8
:102720002080842020800020208093202080002092
:102730002080A220208000202080B3202080002044
:102740002080BE20208000202080C4202080002007
:102750002080CD20208000202080D32020800020D9
:102760002080DC20208000202080F320208000209A
:102770002080E62028801120208000202080342026
:10278000208000202080562020800020208076207D
:10279000208000202080772020800020208066205C
:1027A0002080002020808820208000202080992008
:1027B000208000202080BB202080002020809920C5
:1027C000208000202080662020800020208055204E
:1027D000208000202080552020800020208045205F
:1027E0002080002020804320208000202080442062
:1027F000208000202080E7202880322020800020B8
:1028000020805520208000202080762020800020FD
:1028100020806620208000202080672020800020EB
:10282000208067202080002020808720208000E0FA
:10283000BBE0002020809920208000202080BB2049
:102840002080002020809920208000202080772078
:1028500020800020208044202080002020805620DE
:102860002080002020802320208000202080332012
:102870002080002020804520208000202080E8202B
:102880002880002020802080992020800020208027
:102890008720208000202080882020800020208029
:1028A000772020800020208066202080002020804B
:1028B0008820208000202080AA20208000202080E6
:1028C000BB202080002020809920208000202080B4
:1028D000662020800020208055202080002020803D
:1028E000552020800020208044202080002020804F
:1028F000442020800020208055202080002020803F
:10290000E9202880AA2020800020208020802080AC
:102910002880AA202080CF202880002020802080AE
:10292000208020802080208020802080208000E067
:102930003EE0208020802080208020802080208019
:102940002080F0202880002020805020208000203F
:10295000208020802080F320288000202080F92003
:102960002880062020801020208029202080002020
:1029700020803A2028805520208011202880642043
:10298000FDF726FF29202880352028800020208080
:1029900051202880FF202080532028802C20208058
:1029A00055202880822020802C20288002F021B809
:1029B000B8427DD14FF470435521184602F0CCF94E
:1029C0004FF20104AA21204602F0C6F9661C5221EA
:1029D000304602F0C1F9A71C0821384602F0BCF9C4
:1029E0004FF204090121484602F0B6F90D214FF4D7
:1029F000304002F0B1F90D214BF2010002F0ACF9C8
:102A00000D214BF2020002F0A7F94FF4364A3421AF
:102A1000504602F0A1F934214BF2016002F09CF91A
:102A200034214BF2026002F097F94FF4314B0D2143
:102A3000584602F091F90D214BF2011002F08CF989
:102A40000D214BF2021002F087F934214FF4374088
:102A500002F082F934214BF2017002F07DF9342149
:102A60004BF2027002F078F900214FF4324002F08C
:102A700073F900214BF2012002F06EF900214BF2B4
:102A8000022002F069F924214FF4384002F064F981
:102A900024214BF6010002F05FF924214BF60200DD
:102AA00002F05AF901214FF43F4002F055F900E0DD
:102AB000FDE30F214FF4334002F04EF90F214BF2AA
:102AC000013002F049F90F214BF2023002F044F9D3
:102AD00034214FF4394002F03FF934214BF6011014
:102AE00002F03AF934214BF6021002F035F90821D0
:102AF0004FF4354002F030F908214BF2015002F05A
:102B00002BF908214BF2025002F026F903214FF471
:102B1000424002F021F924214FF43A4002F01CF91E
:102B200024214BF6012002F017F924214BF6022054
:102B300002F012F900214FF43C4002F00DF9782127
:102B40004BF6014002F008F900214BF6024002F07A
:102B500003F900214FF43D4002F0FEF878214BF6D6
:102B6000015002F0F9F800214BF6025002F0F4F89F
:102B700000214FF43E4002F0EFF864214BF6016073
:102B800002F0EAF800214FF4514002F0E5F8332159
:102B90004DF2011002F0E0F800214DF2021002F0B7
:102BA000DBF834214DF2031002F0D6F800214DF28B
:102BB000041002F0D1F83A214DF2051002F0CCF8E1
:102BC00000214DF2061002F0C7F84A214DF207101D
:102BD00002F0C2F800214DF2081002F0BDF85C21AD
:102BE0004DF2091002F0B8F800214DF20A1002F07F
:102BF000B3F881214DF20B1002F0AEF800214DF236
:102C00000C1002F0A9F8A6214DF20D1002F0A4F864
:102C100000214DF20E1002F09FF8E5214DF20F1049
:102C200002F09AF801214DF2101002F095F81321EC
:102C30004DF2111002F090F801214DF2121002F045
:102C40008BF854214DF2131002F086F801214DF259
:102C5000141002F081F882214DF2151002F07CF878
:102C600001214DF2161002F077F8CA214DF217102B
:102C700002F072F802214DF2181002F06DF80021F6
:102C80004DF2191002F068F802214DF21A1002F00C
:102C900063F801214DF21B1002F05EF802214DF2A3
:102CA0001C1002F059F834214DF21D1002F054F8B6
:102CB00002214DF21E1002F04FF867214DF21F1055
:102CC00002F04AF802214DF2201002F045F884216A
:102CD0004DF2211002F040F802214DF2221002F0D4
:102CE0003BF8A4214DF2231002F036F802214DF2F8
:102CF000241002F031F8B7214DF2251002F02CF823
:102D000002214DF2261002F027F8CF214DF22710B4
:102D100002F022F802214DF2281002F01DF8DE2107
:102D20004DF2291002F018F802214DF22A1002F09B
:102D300013F8F2214DF22B1002F00EF802214DF2A1
:102D40002C1002F009F8FE214DF22D1002F004F8CB
:102D500003214DF22E1001F0FFFF10214DF22F1034
:102D600001F0FAFF03214DF2301001F0F5FF33219D
:102D70004DF2311001F0F0FF03214DF2321001F05D
:102D8000EBFF6D214DF2331001F0E6FF00214FF40F
:102D9000524001F0E1FF33214DF2012001F0DCFF50
:102DA00000214DF2022001F0D7FF34214DF2032023
:102DB00001F0D2FF00214DF2042001F0CDFF3A21B5
:102DC0004DF2052001F0C8FF00214DF2062001F070
:102DD000C3FF4A214DF2072001F0BEFF00214DF252
:102DE000082001F0B9FF5C214DF2092001F0B4FF89
:102DF00000214DF20A2001F0AFFF81214DF20B209E
:102E000001F0AAFF00214DF20C2001F0A5FFA62140
:102E10004DF20D2001F0A0FF00214DF20E2001F037
:102E20009BFFE5214DF20F2001F096FF01214DF2AD
:102E3000102001F091FF13214DF2112001F08CFFC1
:102E400001214DF2122001F087FF54214DF2132091
:102E500001F082FF01214DF2142001F07DFF82215B
:102E60004DF2152001F078FF01214DF2162001F0FE
:102E700073FFCA214DF2172001F06EFF02214DF2BF
:102E8000182001F069FF00214DF2192001F064FFC4
:102E900002214DF21A2001F05FFF01214DF21B20AB
:102EA00001F05AFF02214DF21C2001F055FF3421A0
:102EB0004DF21D2001F050FF02214DF21E2001F0C5
:102EC0004BFF67214DF21F2001F046FF02214DF21A
:102ED000202001F041FF84214DF2212001F03CFF30
:102EE00002214DF2222001F037FFA4214DF22320D0
:102EF00001F032FF02214DF2242001F02DFFB72115
:102F00004DF2252001F028FF02214DF2262001F08C
:102F100023FFCF214DF2272001F01EFF02214DF2A9
:102F2000282001F019FFDE214DF2292001F014FFC5
:102F300002214DF22A2001F00FFFF2214DF22B2049
:102F400001F00AFF02214DF22C2001F005FFFE21C5
:102F50004DF22D2001F000FF03214DF22E2001F053
:102F6000FBFE10214DF22F2001F0F6FE03214DF261
:102F7000302001F0F1FE33214DF2312001F0ECFE62
:102F800003214DF2322001F0E7FE6D214DF2332096
:102F900001F0E2FE00214FF4534001F0DDFE332149
:102FA0004DF2013001F0D8FE00214DF2023001F067
:102FB000D3FE34214DF2033001F0CEFE00214DF25C
:102FC000043001F0C9FE3A214DF2053001F0C4FE93
:102FD00000214DF2063001F0BFFE4A214DF20730CC
:102FE00001F0BAFE00214DF2083001F0B5FE5C217F
:102FF0004DF2093001F0B0FE00214DF20A3001F02F
:10300000ABFE81214DF20B3001F0A6FE00214DF206
:103010000C3001F0A1FEA6214DF20D3001F09CFE16
:1030200000214DF20E3001F097FEE5214DF20F30F8
:1030300001F092FE01214DF2103001F08DFE1321BE
:103040004DF2113001F088FE01214DF2123001F0F5
:1030500083FE54214DF2133001F07EFE01214DF22A
:10306000143001F079FE82214DF2153001F074FE2A
:1030700001214DF2163001F06FFECA214DF21730DA
:1030800001F06AFE02214DF2183001F065FE0021C8
:103090004DF2193001F060FE02214DF21A3001F0BC
:1030A0005BFE01214DF21B3001F056FE02214DF274
:1030B0001C3001F051FE34214DF21D3001F04CFE68
:1030C00002214DF21E3001F047FE67214DF21F3004
:1030D00001F042FE02214DF2203001F03DFE84213C
:1030E0004DF2213001F038FE02214DF2223001F084
:1030F00033FEA4214DF2233001F02EFE02214DF2C9
:10310000243001F029FEB7214DF2253001F024FED4
:1031100002214DF2263001F01FFECF214DF2273063
:1031200001F01AFE02214DF2283001F015FEDE21D9
:103130004DF2293001F010FE02214DF22A3001F04B
:103140000BFEF2214DF22B3001F006FE02214DF272
:103150002C3001F001FEFE214DF22D3001F0FCFD7E
:1031600003214DF22E3001F0F7FD10214DF22F30EA
:1031700001F0F2FD03214DF2303001F0EDFD33217D
:103180004DF2313001F0E8FD03214DF2323001F013
:10319000E3FD6D214DF2333001F0DEFD00214FF4EF
:1031A000544001F0D9FD33214DF2014001F0D4FD2E
:1031B00000214DF2024001F0CFFD34214DF20340D9
:1031C00001F0CAFD00214DF2044001F0C5FD3A2195
:1031D0004DF2054001F0C0FD00214DF2064001F026
:1031E000BBFD4A214DF2074001F0B6FD00214DF232
:1031F000084001F0B1FD5C214DF2094001F0ACFD49
:1032000000214DF20A4001F0A7FD81214DF20B4053
:1032100001F0A2FD00214DF20C4001F09DFDA62120
:103220004DF20D4001F098FD00214DF20E4001F0ED
:1032300093FDE5214DF20F4001F08EFD01214DF28D
:10324000104001F089FD13214DF2114001F084FD81
:1032500001214DF2124001F07FFD54214DF2134047
:1032600001F07AFD01214DF2144001F075FD82213B
:103270004DF2154001F070FD01214DF2164001F0B4
:103280006BFDCA214DF2174001F066FD02214DF29F
:10329000184001F061FD00214DF2194001F05CFD84
:1032A00002214DF21A4001F057FD012100E0FFE23A
:1032B0004DF21B4001F050FD02214DF21C4001F087
:1032C0004BFD34214DF21D4001F046FD02214DF22F
:1032D0001E4001F041FD67214DF21F4001F03CFD11
:1032E00002214DF2204001F037FD84214DF22140B2
:1032F00001F032FD02214DF2224001F02DFDA4210A
:103300004DF2234001F028FD02214DF2244001F04E
:1033100023FDB7214DF2254001F01EFD02214DF2A3
:10332000264001F019FDCF214DF2274001F014FD98
:1033300002214DF2284001F00FFDDE214DF229401F
:1033400001F00AFD02214DF22A4001F005FDF221B3
:103350004DF22B4001F000FD02214DF22C4001F016
:10336000FBFCFE214DF22D4001F0F6FC03214DF255
:103370002E4001F0F1FC10214DF22F4001F0ECFC49
:1033800003214DF2304001F0E7FC33214DF2314092
:1033900001F0E2FC03214DF2324001F0DDFC6D2131
:1033A0004DF2334001F0D8FC00214FF4554001F0BC
:1033B000D3FC33214DF2015001F0CEFC00214DF23F
:1033C000025001F0C9FC34214DF2035001F0C4FC5D
:1033D00000214DF2045001F0BFFC3A214DF205509E
:1033E00001F0BAFC00214DF2065001F0B5FC4A2173
:1033F0004DF2075001F0B0FC00214DF2085001F0F1
:10340000ABFC5C214DF2095001F0A6FC00214DF20D
:103410000A5001F0A1FC81214DF20B5001F09CFCFF
:1034200000214DF20C5001F097FCA6214DF20D50F9
:1034300001F092FC00214DF20E5001F08DFCE521CF
:103440004DF20F5001F088FC01214DF2105001F0B7
:1034500083FC13214DF2115001F07EFC01214DF24D
:10346000125001F079FC54214DF2135001F074FC1C
:1034700001214DF2145001F06FFC82214DF21550E4
:1034800001F06AFC01214DF2165001F065FCCA21E1
:103490004DF2175001F060FC02214DF2185001F07E
:1034A0005BFC00214DF2195001F056FC02214DF257
:1034B0001A5001F051FC01214DF21B5001F04CFC5F
:1034C00002214DF21C5001F047FC34214DF21D50F9
:1034D00001F042FC02214DF21E5001F03DFC67213B
:1034E0004DF21F5001F038FC02214DF2205001F046
:1034F00033FC84214DF2215001F02EFC02214DF2CB
:10350000225001F029FCA4214DF2235001F024FCAB
:1035100002214DF2245001F01FFCB7214DF225503D
:1035200001F01AFC02214DF2265001F015FCCF21CA
:103530004DF2275001F010FC02214DF2285001F00D
:103540000BFCDE214DF2295001F006FC02214DF268
:103550002A5001F001FCF2214DF22B5001F0FCFB4E
:1035600002214DF22C5001F0F7FBFE214DF22D50BF
:1035700001F0F2FB03214DF22E5001F0EDFB102182
:103580004DF22F5001F0E8FB03214DF2305001F0D5
:10359000E3FB33214DF2315001F0DEFB03214DF20C
:1035A000325001F0D9FB6D214DF2335001F0D4FBC4
:1035B00000214FF4564001F0CFFB33214DF2016062
:1035C00001F0CAFB00214DF2026001F0C5FB34217D
:1035D0004DF2036001F0C0FB00214DF2046001F0E8
:1035E000BBFB3A214DF2056001F0B6FB00214DF224
:1035F000066001F0B1FB4A214DF2076001F0ACFB1F
:1036000000214DF2086001F0A7FB5C214DF209603A
:1036100001F0A2FB00214DF20A6001F09DFB812127
:103620004DF20B6001F098FB00214DF20C6001F0AF
:1036300093FBA6214DF20D6001F08EFB00214DF2AF
:103640000E6001F089FBE5214DF20F6001F084FB73
:1036500001214DF2106001F07FFB13214DF211604A
:1036600001F07AFB01214DF2126001F075FB54214B
:103670004DF2136001F070FB01214DF2146001F076
:103680006BFB82214DF2156001F066FB01214DF2CA
:10369000166001F061FBCA214DF2176001F05CFB7E
:1036A00002214DF2186001F057FB00214DF2196024
:1036B00001F052FB02214DF21A6001F04DFB012195
:1036C0004DF21B6001F048FB02214DF21C6001F03D
:1036D00043FB34214DF21D6001F03EFB02214DF20F
:1036E0001E6001F039FB67214DF21F6001F034FBD1
:1036F00002214DF2206001F02FFB84214DF2216068
:1037000001F02AFB02214DF2226001F025FBA421E9
:103710004DF2236001F020FB02214DF2246001F004
:103720001BFBB7214DF2256001F016FB02214DF283
:10373000266001F011FBCF214DF2276001F00CFB58
:1037400002214DF2286001F007FBDE214DF22960D5
:1037500001F002FB02214DF22A6001F0FDFAF22194
:103760004DF22B6001F0F8FA02214DF22C6001F0CD
:10377000F3FAFE214DF22D6001F0EEFA03214DF235
:103780002E6001F0E9FA10214DF22F6001F0E4FA09
:1037900003214DF2306001F0DFFA33214DF2316048
:1037A00001F0DAFA03214DF2326001F0D5FA6D2111
:1037B0004DF2336001F0D0FA5521184601F0CCFAF1
:1037C000AA21204601F0C8FA5221304601F0C4FA7D
:1037D0000821384601F0C0FA0021484601F0BCFA41
:1037E000CC21584601F0B8FA00214BF2011001F04B
:1037F000B3FA0521504601F0AFFA70214FF437407B
:1038000001F0AAFA70214BF2017001F0A5FA012132
:103810004FF4384001F0A0FA03214BF6010001F00B
:103820009BFA03214BF6020001F096FA03214BF6B6
:10383000030001F091FA02214FF43C4001F08CFAB0
:1038400000214BF6014001F087FA00214BF60240BF
:1038500001F082FAD0214FF4494001F07DFA0221B3
:103860004CF6011001F078FA50214CF6021001F0EC
:1038700073FA50214CF6031001F06EFA50214CF609
:10388000041001F069FA00214FF4545001F064FA79
:1038900055214FF4685001F05FFA4FF488502880AA
:1038A0007720401EC0B2FCD24FF42450FFF77DB801
:1038B000A0F513414FF480764FF4E06940F23F1BCE
:1038C0004FF4274A25392ED0A0F5134140F207774F
:1038D00028397DD0A0F513414FF4887A203978D06B
:1038E000A0F51341313975D0A0F5A841083972D03F
:1038F000A0F5A8514FF4407A05396DD0A0F53541B7
:1039000005396AD0A0F54541053967D0A0F58A414F
:1039100031397CD0A0F58A41353979D0A0F5C8512C
:10392000633976D0FEE347F6F001E52001F014FAA2
:103930003146012001F010FA4946022001F00CFA4C
:1039400041F23001032001F007FA0021042001F0C8
:1039500003FA40F20221082001F0FEF900210920BB
:1039600001F0FAF900210A2001F0F6F900210C20FB
:1039700001F0F2F900210D2001F0EEF900210F20F5
:1039800001F0EAF90021102001F0E6F907211120E9
:1039900001F0E2F90021122001F0DEF900211320EC
:1039A00001F0DAF90021072001F0D6F941F2906127
:1039B000102001F0D1F940F22721112001F0CCF9BB
:1039C0009D21122001F0C8F94FF4C851132006E0E0
:1039D00081E03DE1E2E1B8E253E3FDE3FDE301F024
:1039E000BBF92521292001F0B7F90D212B2001F089
:1039F000B3F90721302001F0AFF940F20331312053
:103A000001F0AAF90321322001F0A6F902E0FCE35B
:103A1000FCE3FCE340F20621352001F09DF908218A
:103A2000362001F099F940F20641372001F094F96F
:103A30004FF44171382001F08FF90721392001F04E
:103A40008BF940F202613C2001F086F908213D200B
:103A500001F082F90021502001F07EF9EF21512080
:103A600001F07AF90021522001F076F959465320ED
:103A700001F072F95146602001F06EF901216120D8
:103A800001F06AF900216A2001F066F90021802026
:103A900001F062F90021812001F05EF9002182200D
:103AA00001F05AF90021832001F056F90021842009
:103AB00001F052F90021852001F04EF910219020EB
:103AC00001F04AF94FF4C061922001F045F940F24B
:103AD00033110720FDE341F28F01EC2001F03CF9A6
:103AE00041F23421EF2001F037F93146012001F095
:103AF00033F94946022001F02FF941F23001032049
:103B000001F02AF90021042001F026F940F20221F7
:103B1000082001F021F90021092001F01DF9002100
:103B20000A2001F019F901210C2001F015F90021FA
:103B30000D2001F011F900210F2001F00DF90021F5
:103B4000102001F009F90721112001F005F90021E9
:103B5000122001F001F90021132001F0FDF80121EC
:103B6000072001F0F9F83220FCF732FE41F29041D3
:103B7000102001F0F1F840F22721112001F0ECF8BB
:103B80003220FCF725FE8A21122001F0E5F83220D0
:103B9000FCF71EFE4FF4D051132001F0DDF8062192
:103BA000292001F0D9F80D212B2001F0D5F8322081
:103BB000FCF70EFE0021202001F0CEF8002121208C
:103BC00001F0CAF83220FCF703FE0021302001F09A
:103BD000C3F840F20461312001F0BEF840F2053133
:103BE000322001F0B9F80021352001F0B5F840F697
:103BF0000941362001F0B0F84FF40171372001F08F
:103C0000ABF840F20131382001F0A6F839463920EE
:103C100001F0A2F800213C2001F09EF840F60A21B4
:103C20003D2001F099F83220FCF7D2FD0021502010
:103C300001F092F8EF21512001F08EF8002152207E
:103C400001F08AF85946532001F086F8514651E1B7
:103C50000021084601F080F83146012001F07CF88F
:103C60004946022001F078F841F23001032001F0CA
:103C700073F80021042001F06FF840F202210820BF
:103C800001F06AF80021092001F066F800210A20FD
:103C900001F062F801210C2001F05EF800210D20F6
:103CA00001F05AF800210F2001F056F83220FCF7FD
:103CB0008FFD40F20111072001F04EF83220FCF791
:103CC00087FD4FF48651102001F046F8072111209E
:103CD00001F042F853465146122001F03DF84FF4EE
:103CE0003061132001F038F80021292001F034F868
:103CF00044F210012B2001F02FF80021502001F098
:103D00002BF8EF21512001F027F80021522001F07B
:103D100023F85946532001F01FF84FF41C5160203E
:103D200001F01AF80121612001F016F800216A2043
:103D300001F012F80021802001F00EF8002181200E
:103D400001F00AF80021822001F006F8002183200A
:103D500001F002F80021842000F0FEFF0021852000
:103D600000F0FAFF1021902000F0F6FF00219220D1
:103D700000F0F2FF0121932000F0EEFF194695209C
:103D800000F0EAFF0021972000F0E6FF00219820D4
:103D900000F0E2FF40F27311072085E341F21401C5
:103DA000E72000F0D9FF3146012000F0D5FF4FF4A5
:103DB0000071022000F0D0FF41F23801032000F032
:103DC000CBFF40F20221082000F0C6FF00210920AD
:103DD00000F0C2FF00210A2000F0BEFF00210C20ED
:103DE00000F0BAFF00210D2000F0B6FF00210F20E7
:103DF00000F0B2FF0021102000F0AEFF07211120DB
:103E000000F0AAFF0021122000F0A6FF00211320DD
:103E100000F0A2FFC820FCF7DBFC41F2906110200B
:103E200000F09AFF40F22721112000F095FF322088
:103E3000FCF7CEFC0C21122000F08EFF3220FCF7A4
:103E4000C7FC4FF40061132000F086FF11212920E8
:103E500000F082FF0B212B2000F07EFF3220FCF7C8
:103E6000B7FC0021202000F077FF5C465946212056
:103E700000F072FF0021302000F06EFF4FF48373DA
:103E80001946312000F068FF0021322000F064FF65
:103E90004FF40171352000F05FFF41F20A613620D6
:103EA00000F05AFF3946372000F056FF19463820F7
:103EB00000F052FF3946392000F04EFF40F2024137
:103EC0003C2000F049FF40F60F413D2000F044FF48
:103ED0000021502000F040FFEF21512000F03CFF76
:103EE0000021522000F038FF2146532000F034FF1B
:103EF0004FF41C51602000F02FFF0121612000F0E1
:103F00002BFF00216A2000F027FF0021802000F015
:103F100023FF0021812000F01FFF0021822000F0FC
:103F20001BFF0021832000F017FF0021842000F0F8
:103F300013FF0021852000F00FFF1021902000F0DA
:103F40000BFF4FF4C0619220FDE33146012000F0E9
:103F500003FF4946022000F0FFFE41F2300103203A
:103F600000F0FAFE0021042000F0F6FE40F20721E6
:103F7000082000F0F1FE0021092000F0EDFE0021F4
:103F80000A2000F0E9FE00210C2000F0E5FE0021EF
:103F90000D2000F0E1FE00210F2000F0DDFE1420D6
:103FA000FCF716FC41F2B061102000F0D5FE0121B3
:103FB000112000F0D1FE0121172000F0CDFE4FF4BA
:103FC0009C71122000F0C8FE4FF40061132000F035
:103FD000C3FE0921292000F0BFFE09212A2000F09C
:103FE000BBFE0021A42000F0B7FE0021502000F00D
:103FF000B3FEEF21512000F0AFFE0021522000F06F
:10400000ABFE5946532000F0A7FE4FF41C51602030
:1040100000F0A2FE0121612000F09EFE00216A2036
:1040200000F09AFE0021802000F096FE0021812001
:1040300000F092FE0021822000F08EFE00218320FD
:1040400000F08AFE0021842000F086FE00218520F9
:1040500000F082FE1321902000F07EFE00219220CD
:1040600000F07AFE0321932000F076FE5146952061
:1040700000F072FE40F27311072000F06DFE322056
:1040800011E10021072000F067FE3220FCF7A0FBC1
:104090004FF48E71122000F05FFE0121A42000F089
:1040A0005BFE0F21082000F057FE08210A2000F0D7
:1040B00053FE08210D2000F04FFE3946302000F05D
:1040C0004BFE0721312000F047FE40F20361322011
:1040D00000F042FE4C464946332000F03DFE40F2DF
:1040E0000221342000F038FE0221352000F034FE99
:1040F00041F60F71362000F02FFE3946372000F0D0
:104100002BFE0021382000F027FE0021392000F08E
:1041100023FE39463A2000F01FFE00213B2000F02C
:104120001BFE00E041E307213C2000F015FE0021CA
:104130003D2000F011FE3220FCF74AFB0121072050
:1041400000F00AFE0121172000F006FE3220FCF7E5
:104150003FFB4FF4BD51102000F0FEFD40F217214F
:10416000112000F0F9FD4FF48F71122000F0F4FDE2
:104170004FF47061132000F0EFFD00212A2000F0C1
:10418000EBFD0A21292000F0E7FD4FF49F7112207A
:1041900000F0E2FD0021502000F0DEFDEF21512073
:1041A00000F0DAFD0021522000F0D6FD59465320E0
:1041B00000F0D2FD4FF41C51602000F0CDFD012134
:1041C000612000F0C9FD00216A2000F0C5FD00213A
:1041D000802000F0C1FD01E068E066E1002181205F
:1041E00000F0BAFD0021822000F0B6FD00218320FE
:1041F00000F0B2FD0021842000F0AEFD00218520FA
:1042000000F0AAFD1321902002E017E2CEE275E350
:1042100000F0A2FD5146922000F09EFD0521932062
:1042200000F09AFD0021952000F096FD00219720D6
:1042300000F092FD0021982000F08EFD3146012013
:1042400000F08AFD2146022000F086FD41F238018F
:10425000032000F081FD0021042000F07DFD0021FD
:104260000C2000F079FD00210F2000F075FD0021E9
:10427000202000F071FD0021212000F06DFD2121A2
:10428000072000F069FD1420FCF7A2FA6121072045
:1042900000F062FD1420FCF79BFA40F27311072036
:1042A00000F05AFD1420FCF793FAA2E3002108461F
:1042B00000F052FD0021084600F04EFD00210846A6
:1042C00000F04AFD0021084600F046FD0121A4202F
:1042D00000E0E5E000F040FD1420FCF779FA4FF42F
:1042E0001C542146602000F037FD40F2022529468B
:1042F000082000F031FD4FF40571302000F02CFD56
:1043000043F21571312000F027FD40F204613220A4
:1043100000F022FD40F61661332000F01DFD42F250
:104320001121342000F018FD4FF4A851352000F081
:1043300013FD48F20751362000F00EFD41F207410F
:10434000372000F009FD41F20341382000F004FD60
:104350002021392000F000FD1A21902000F0FCFC03
:104360000021102000F0F8FC0721112000F0F4FCDF
:104370000021122000F0F0FC0021132000F0ECFCE2
:104380001420FCF725FA4FF4E661102000F0E4FC5D
:1043900040F23711112000F0DFFC1420FCF718FA6E
:1043A0004FF4DC71122000F0D7FC1420FCF710FA57
:1043B0004FF47061132000F0CFFC80212A2000F020
:1043C000CBFC4821292000F0C7FC1420FCF700FAA0
:1043D0003146012000F0C0FC4946022000F0BCFC40
:1043E00041F23801032000F0B7FC2946082000F014
:1043F000B3FC00210A2000F0AFFC00210C2000F0EB
:10440000ABFC00210D2000F0A7FC30210E2000F0B5
:10441000A3FC0021502000F09FFCEF21512000F070
:104420009BFC0021522000F097FC5946532000F0DD
:1044300093FC2146602000F08FFC0121612000F0F8
:104440008BFC00216A2000F087FC1121902000F0F5
:1044500083FC4FF4C061922000F07EFC40F20241E8
:10446000932000F079FC0221942000F075FC1420C8
:10447000FCF7AEF90121072000F06EFC1420FCF7D8
:10448000A7F96121072000F067FC40F273110720B3
:1044900000F062FC0021202000F05EFC00212120C1
:1044A00000F05AFC222100207DE10021084600F0A6
:1044B00053FC0021084600F04FFC1420FCF788F95B
:1044C0000021084600F048FC0021084600F044FCAA
:1044D0000021084600F040FC0021084600F03CFCAA
:1044E0000121A42000F038FC1420FCF771F94FF4EE
:1044F0001C51602000F030FC40F60601082000F05E
:104500002BFC40F203731946302000F025FC0121FA
:10451000312000F021FC0421322000F01DFC4FF47A
:104520008171332000F018FC54465146342000F0CD
:1045300013FC40F20311352000F00EFC1F21362041
:1045400000F00AFC1946372000F006FC0121382053
:1045500000F002FC0421392000F0FEFB1521902020
:1045600000F0FAFB4FF48261102000F0F5FB40F2FE
:104570004721112000F0F0FB4FF4DE71122000F013
:10458000EBFB4FF46061132000F0E6FB7820FCF7B2
:104590001FF93146012000F0DFFB4FF400710220CB
:1045A00000F0DAFB41F23001032000F0D5FB0821D6
:1045B0000A2000F0D1FB00210C2000F0CDFB2021CF
:1045C0000E2000F0C9FB00210F2000F0C5FB0021E8
:1045D000202000F0C1FB0021212000F0BDFB3D2187
:1045E0002A2000F0B9FB1420FCF7F2F82D21292035
:1045F00000F0B2FB0021502000F0AEFB4DF2EF01C5
:10460000512000F0A9FB0021522000F0A5FB5946E3
:10461000532000F0A1FB0021612000F09DFB002150
:104620006A2000F099FB2146922000F095FB0521BD
:10463000932000F091FB3146FFF7AEBB0121002033
:1046400000F08AFB0A20FCF7C3F841F22861102031
:1046500000F082FB0E21122000F07EFB40F6392193
:10466000132000F079FB0A20FCF7B2F8402111205A
:1046700000F072FB5021152000F06EFB0A20FCF7C1
:10468000A7F81E21122000F067FB0A20FCF7A0F813
:104690004FF4B151102000F05FFB42F63921132096
:1046A00000F05AFB0A20FCF793F83146012000F095
:1046B00053FB5146022000F04FFB41F2380103202A
:1046C00000F04AFB40F20221082000F045FB0821DF
:1046D0000A2000F041FB0021302000F03DFB40F2B9
:1046E0000241312000F038FB4FF48371322000F09A
:1046F00033FB40F20351332000F02EFB4FF4827164
:10470000342000F029FB40F20131352000F024FB79
:104710003946362000F020FB40F20531372000F00A
:104720001BFB4FF40271382000F016FB40F60B71B2
:10473000392000F011FB0221412000F00DFB4FF465
:104740001C51602000E0D4E000F006FB0121612054
:1047500000F002FB4FF40471902000F0FDFA4FF4DA
:104760008571922000F0F8FA0421932000F0F4FA09
:104770003146A02000F0F0FA0121072000F0ECFA09
:104780002121072000F0E8FA2321072000F0E4FAB5
:104790003321072000F0E0FA40F23311072000F047
:1047A000DBFA0021A02000F0D7FA22E13021152009
:1047B00000F0D2FA10219A2000F0CEFA2021112028
:1047C00000F0CAFA43F22841102000F0C5FA022195
:1047D000122000F0C1FA41F23801132000F0BCFAB7
:1047E0002820FBF7F5FF1221084600F0B5FA282033
:1047F000FBF7EEFF43F22041102000F0ADFA43F248
:104800003801132000F0A8FA4620FBF7E1FF002151
:10481000302000F0A1FA40F20241312000F09CFA71
:1048200040F20731322000F097FA4FF44171332003
:1048300000F092FA0421342000F08EFA40F2014197
:10484000352000F089FA3946362000F085FA40F22A
:104850000531372000F080FA4FF4C2631946382042
:1048600000F07AFA1946392000F076FA3146012034
:1048700000F072FA5146022000F06EFA41F2300167
:10488000032000F069FA40F60801082000F064FAFD
:1048900008210A2000F060FA4FF41C51602000F05B
:1048A0005BFA0121612000F057FA4FF49F719020CC
:1048B00000F052FA3146922000F04EFA3146932031
:1048C00000F04AFA4FF44051A02000F045FA1021C0
:1048D000A32000F041FA0121072000F03DFA212138
:1048E000072000F039FA2321072000F035FA3321A0
:1048F000072000F031FA40F233119DE6E2202880D3
:104900002320208002202080042020806320401E5D
:10491000C0B2FCD2E0202880012020800A20FBF7D2
:1049200057FFE0202880032020800C20FBF750FF59
:10493000012028800A20FBF74BFFE6202880032077
:104940002080FF2020802080B02028802020208010
:10495000002020800320208040F21F302080012092
:10496000208040F2DF10208000202080B4202880AA
:104970000420208040F21F40208000202080D22090
:10498000208000202080208020802080B620288069
:10499000022020804FF403702080002020802220FD
:1049A000208009202080002020802080F020288086
:1049B0000320208029202880D020288000202080EB
:1049C000BE20288005202080FE202080012020801D
:1049D000FF20208000202080B82028800F20208009
:1049E00001202080BA20288001202080642000F04F
:1049F00017F80020FDF768F8012211460348FCF77C
:104A000027F84046BDE8F05FFDF728B8000C0140EC
:104A100002490880881C008870470000FE07006C6F
:104A20000C4A10B5BE211180941C05212180FBF792
:104A30002FFC4FF06632084BFBF7B8FBFBF735FC59
:104A4000208001202080FF202080002020802080E6
:104A500010BD0000FE07006C66660440F0B5674CB0
:104A600000232146A679898846F6040241F663159B
:104A7000012E01D02EB11DE091421BD0A94202D1DE
:104A800018E0A94216D1082814D2DFE800F0040685
:104A9000080A0C0E101206200CE007200AE0042081
:104AA00008E0052006E0012004E0002002E00320E9
:104AB00000E00220A1F5134C45F2103745F21056E4
:104AC000BCF1410C07D0914205D0B94203D0B142AC
:104AD00001D0A94275D1082812D2DFE800F01104F4
:104AE00006080A0C0E1080230AE0402308E0C023C9
:104AF00006E0202304E0602302E0A02300E0E0239E
:104B0000B14202D14FF4585000E03620B94205D0EE
:104B1000B14203D0A94201D043F00803914201D130
:104B200043F00203194600F017F9A088A8420AD002
:104B300099062188628802D5914202D303E091420E
:104B400001D9228061802E498A1CB0426089088088
:104B500021D100231380431C0B8000231380831C6E
:104B60000B8023885B1E1D0A1580C01C0880D8B2EC
:104B70001080A089088000231380431C0B80002331
:104B80001380831C0B8063885B1E1C0A1480C01C6E
:104B90000880D8B212E00020108010802088401ECB
:104BA000030A1380C0B21080A08908800020108002
:104BB00010806088401E010A1180C0B21080F0BDD4
:104BC000FFE7082812D2DFE800F0040608110A0CFB
:104BD0000E1030230AE0102308E0202306E03823DB
:104BE00004E0282302E0182300E00823BDE8F04099
:104BF000032043F4805100F0AFB8000028010020EA
:104C0000FE07006C2DE9F04F4C4E0C4601464FEA72
:104C1000102C3046B588DFF828B18289230A4089F4
:104C2000A5F513470BF1020A413F1CD0A5F5A64795
:104C3000103F18D0B64696F806903688A5F5D047AE
:104C4000A6EB0108A8F10108043F13D0A5F5C85749
:104C5000633F23D0A5F5AA477646103F4ED0B9F161
:104C6000010F60D061E05D46ABF800005046AAF845
:104C700000C00BE0B9F1010F01D11FFA88F15D46C8
:104C8000ABF800000E0A5046AAF80060C9B20180D5
:104C90002A800380E1B20180BDE8F08FB9F1000FF6
:104CA0001DD0ABF800005046AAF800C0C9B2AAF85F
:104CB0000010761E310AAAF80010F1B20180ABF89C
:104CC00000205046AAF80030E1B2AAF80010BEF861
:104CD0000210491E0A0AAAF80020C9B2DBE71FFA2F
:104CE00088F1ABF8000000265046AAF80060AAF848
:104CF00000600E0AAAF80060C9B2DFE7ABF8000056
:104D0000AAF800C0401CABF80000C8B2AAF8000026
:104D1000ABF80020AAF80030521CABF80020E0B23B
:104D2000AAF80000B8E71FFA88F100F015F8B0897A
:104D30002146BDE8F04F00F00FB800002801002028
:104D4000FE07006C02480349008908807047000094
:104D500028010020FE07006C024A1080901C018090
:104D600070470000FE07006CF0B58268D0E900349F
:104D700000261546A24210D18160E01A16E056883E
:104D80009F19A74206D1CB1A538082880088101A37
:104D90004880F0BD16463A4601E0B1F800C01788D9
:104DA000BC45ECD8954203D18160D01A4880F0BD53
:104DB000D21A4A800088081A7080F0BD70B5054686
:104DC0000E468468696820468C420CD11AA006E021
:104DD000204664882B681C44A14205D11CA001F028
:104DE000F3F8002070BDEA6823881344B342EFD380
:104DF00061884180E868228881198A4210D9A11906
:104E00000144101A801B0880A868A04203D1A96041
:104E10006088488002E02846FFF7A6FF268007E06A
:104E20002680A868A04203D1618828680844A86049
:104E3000E868204470BD0000C4DAB4E6C2FA2CCEA3
:104E4000DEC4DAB4E6BFC9D2D4B7D6C5E40D0A00D1
:104E5000CEDEC4DAB4E6BFC9D2D4B7D6C5E40D0AF3
:104E60000000000010B504468818C4E900100420B2
:104E7000C4E902104A800A8007A0216801F0A4F862
:104E80000BA0616801F0A0F8D4E90010411ABDE858
:104E900010400DA001F098B86D6573732D3E7374CA
:104EA00061727441646472203D202523580D0A000C
:104EB0006D6573732D3E656E6441646472203D20A0
:104EC0002523580D0A0000006D6573732D3E656E35
:104ED0006441646472202D206D6573732D3E73747C
:104EE00061727441646472203D2025640D0A0000E3
:104EF00000B51E488FB04FF0204101601C49416051
:104F00000621816000211022C160C0E90412816184
:104F1000C16113020162C0E909139302C0E90B13D6
:104F200041638163012000900F200DF1080C1123D3
:104F300001908CE80F000691CDE907100DF1240CCB
:104F400003208CE80F000D9107AA69460748FCF77B
:104F500078FC18B15D2107A001F022F80948C16969
:104F600041F48061C1610FB000BD0000200000204D
:104F7000040100A02E2E2F5372632F66736D632ED3
:104F80006300000000000140224810B5816986B02E
:104F900041F008018161816901F008010491816992
:104FA00041F480718161816901F4807104918169AA
:104FB00041F040018161816901F040010491816902
:104FC00041F020018161816901F020010491816932
:104FD00041F010018161816901F010010491816942
:104FE00041F00401816180690B4C00F004000490E1
:104FF000002201212046FBF72BFD01210220CDE9F3
:1050000002100091019169462046FBF72DFC06B085
:1050100010BD000000100240000C0140114810B506
:105020000F490160002141608160C16001614161FF
:1050300004218161FCF7ECF918B141210AA000F0CC
:10504000AFFF4FF400610748FCF74AF8002805D08D
:10505000BDE81040462104A000F0A2BF10BD000032
:1050600000800140640000202E2E2F5372632F73A6
:1050700064696F2E630000000D4810B50B49016094
:105080004FF4E1314160002181600C22C160C0E930
:1050900004128161C161FCF726FC002805D0BDE83F
:1050A0001040422103A000F07BBF10BD003801403A
:1050B000E80000202E2E2F5372632F7573617274D7
:1050C0002E630000FEE770470907090E002806DA84
:1050D00000F00F0000F1E02080F8141D704700F18F
:1050E000E02080F8001470472DE9F041884607461B
:1050F0001D46164620210B48FFF760FE0021017671
:10510000C16104460182FBF767FA01466161E580EF
:10511000A6802780A4F8028003492046A160BDE84C
:10512000F08100003801002007060008F8B5F022E1
:10513000044611461046FBF7B2F90090E388A288B6
:1051400061882088FBF724FAE32211461046FBF71A
:10515000A6F903462088A188E5880144491C8AB243
:105160006188401E2944491C89B280B2FBF7A0F92E
:10517000E32211461046FBF792F903466188E08866
:10518000A588084482B220882844401C80B2FBF7DE
:10519000BDF92088A188E3880144891C8AB261880E
:1051A000801E1944891C4FF6FF7689B280B23346BF
:1051B000FBF77EF96088E188A3880144891C8AB2E4
:1051C0002188401E1944891C8DB281B2334628467D
:1051D000FBF79CF9A02211461046FBF760F9034645
:1051E0002088A18801448AB26188401E491E89B284
:1051F00080B2FBF75DF9A02211461046FBF74FF98C
:1052000003466188E088084482B22088401E80B24C
:10521000FBF77CF9692211461046FBF740F903467B
:105220002088A1880144491C8AB26188801E891E99
:1052300089B280B2FBF73CF9692211461046FBF7B0
:105240002EF903466088E1880144491C8AB2401E59
:1052500081B2208801B0401EBDE8F04080B2FBF76B
:1052600055B938B5F022044611461046FBF717F938
:105270000090E388A28861882088FBF789F9A02242
:1052800011461046FBF70BF903462088A188E588F4
:105290000144491C8AB26188401E2944491C89B2D4
:1052A00080B2FBF705F9A02211461046FBF7F7F88C
:1052B00003466188E088A588084482B22088284493
:1052C000401C80B2FBF722F9692211461046FBF719
:1052D000E6F803462088A188E5880144891C8AB243
:1052E0006188801E2944891C89B280B2FBF7E0F8EE
:1052F000692211461046FBF7D2F803466088E18820
:10530000A5880144891C8AB22188401E2944891C31
:105310008DB281B22846FBF7F9F8E3221146104618
:10532000FBF7BDF803462088A18801448AB2618852
:10533000401E491E89B280B2FBF7BAF8E32211463B
:105340001046FBF7ACF803466188E088084482B257
:105350002088401E80B2FBF7D9F82088A1884FF63C
:10536000FF750144491C8AB26188801E891E89B27A
:1053700080B22B46FBF79CF86088E1882B460144FD
:10538000491C8AB2401E81B2208801B0401EBDE88F
:10539000304080B2FBF7BAB870470A6842624A6888
:1053A0008262D1E902231A43D1E904310B43C16A75
:1053B0001A4321F0F7011143C162002070470068D1
:1053C00000F00300704708B50844143000900068EE
:1053D00008BD70B50DF1100C11439CE8700023431B
:1053E000194329434268314347F6FF639A430A430E
:1053F0004260002070BD0321016000207047D0F89A
:10540000800070470A688260D1E901231A43D1E91C
:1054100003310B43C1681A436FF30B011143C160A1
:10542000002070470968C0F880100020704710B550
:1054300086B004463720CDE90010402002900020BD
:1054400003904FF48060049069462046FFF7DAFF2E
:1054500041F288323721204600F0B6F906B010BD7F
:1054600010B504460A4886B001432920CDE9001052
:1054700040200290002003904FF480600490694621
:105480002046FFF7BFFF204600F054FA06B010BDDB
:105490000000108010B586B004461020CDE9001041
:1054A00040200290002003904FF4806004906946F1
:1054B0002046FFF7A7FF41F288321021204600F076
:1054C00083F906B010BD10B586B004460620CDE9BC
:1054D000001040200290002003904FF48060049060
:1054E00069462046FFF78EFF41F2883206212046AA
:1054F00000F06AF906B010BD30B585B0002405464D
:10550000009401944FF480600294CDE90340694611
:105510002846FFF777FF0B484FF4FA510068B0FBBD
:10552000F1F041F288314843401E03D24FF0004071
:1055300005B030BD696B0906F6D540F2FF50A8638F
:105540002046F5E71400002070B585B004464FF4FE
:10555000D570009008204026CDE901060025C00145
:10556000CDE9035069462046FFF74CFF0F484FF442
:10557000FA510068B0FBF1F041F288314843401E17
:1055800002D24FF000450DE0616B11F0450FF6D0EF
:10559000606B400702D5A663042503E0606B4006FC
:1055A00000D5A66305B0284670BD00001400002099
:1055B00010B586B004461220CDE9001040200290BC
:1055C000002003904FF48060049069462046FFF766
:1055D00019FF41F288321221204600F0F5F806B09A
:1055E00010BD10B586B004461120CDE90010402052
:1055F0000290002003904FF480600490694620469A
:10560000FFF700FF41F288321121204600F0DCF85C
:1056100006B010BD10B586B004460720CDE90020C5
:1056200040200290002003904FF48060049069466F
:105630002046FFF7E7FE41F288320721204600F0BE
:10564000C3F806B010BD10B586B004460021022094
:10565000CDE90010C020CDE902014FF48060049034
:1056600069462046FFF7CEFE204600F03BF906B023
:1056700010BD10B586B004460920CDE90010C02049
:105680000290002003904FF4806004906946204609
:10569000FFF7B8FE204600F025F906B010BD10B5A2
:1056A00086B0044600213320CDE900104020CDE92A
:1056B00002010001049069462046FFF7A3FE41F273
:1056C00088323321204600F07FF806B010BD10B5B7
:1056D00086B004460D20CDE9001040200290002045
:1056E00003904FF48060049069462046FFF78AFEDD
:1056F00041F288320D21204600F066F806B010BD58
:1057000030B585B00C46054600210320CDE90010D8
:105710004020CDE902010001049069462846FFF7C8
:1057200071FE22460321284600F024F905B030BD61
:1057300010B586B0044600210C20CDE900104020B1
:10574000CDE902010001049069462046FFF75AFEA8
:10575000034A0C21204600F037F806B010BD0000C7
:1057600000E1F50510B586B004461920CDE900101A
:1057700040200290002003904FF48060049069461E
:105780002046FFF73FFE41F288321921204600F003
:105790001BF806B010BD10B586B004461820CDE940
:1057A000001040200290002003904FF4806004908D
:1057B00069462046FFF726FE41F28832182120462E
:1057C00000F002F806B010BD444B10B51B684FF452
:1057D000FA54B3FBF4F353435B1E02D24FF0004084
:1057E00010BD426B12F0450FF6D0426B520703D545
:1057F00004218163084610BD426BD20702D001210B
:10580000816303E00269D2B28A4201D0012010BD57
:1058100040F2FF5181630021FFF7D5FD3049084276
:1058200001D1002010BD002802DA4FF0007010BD39
:10583000410001D5402010BD810001D5802010BD60
:10584000C10002D54FF4807010BD010102D54FF4A4
:10585000007010BD410102D54FF4806010BDC10140
:1058600002D54FF4006010BD010202D54FF4805004
:1058700010BD410202D54FF4005010BD810202D587
:105880004FF4804010BDC10202D54FF4004010BD5E
:10589000410302D54FF4003010BD810302D54FF40F
:1058A000802010BDC10302D54FF4002010BD0104BB
:1058B00002D54FF4801010BD410402D54FF4001002
:1058C00010BD810402D54FF4800010BD000702D541
:1058D0004FF4000010BD4FF4803010BD14000020C4
:1058E00008E0FFFD12494FF4FA520968B1FBF2F1EA
:1058F00041F288325143491E02D24FF000407047B6
:10590000426B12F0450FF6D0416B490703D50421D5
:10591000816308467047416BC90703D00121816349
:105920000846704740F2FF51816300207047000035
:10593000140000200E494FF4FA520968B1FBF2F14D
:1059400041F288325143491E02D24FF00040704765
:10595000426B12F0450FF6D0416B490703D5042185
:1059600081630846704740F2FF5181630020704711
:10597000140000201F4B10B51B684FF4FA54B3FB02
:10598000F4F341F2883463435B1E02D24FF00040CF
:1059900010BD446B14F0450FF6D0436B5B0703D585
:1059A00004218163084610BD436BDB0702D001214F
:1059B000816303E00369DBB28B4201D0012010BD9B
:1059C00040F2FF5181630021FFF7FDFC10F4604FAE
:1059D00004D0410406D54FF4005010BD000C1080D7
:1059E000002010BD000402D54FF4805010BD4FF4CC
:1059F000803010BD140000202DE9F04F89B00E4614
:105A00000446FBF72BF800258346009501952F46A9
:105A100008212068FFF73EFD002834D1B4F850007B
:105A200001042068FFF703FD00282CD1401E4FF031
:105A30000808CDE9020830204FF00209CDE9040939
:105A40000120CDE9067002A92068FFF7A6FC2068B6
:105A5000FFF725FE002816D1EA4640F22A472068C3
:105A6000416B394212D1416B890204D5FFF7C7FC63
:105A70004AF825006D1CFAF7F1FFA0EB0B00401C63
:105A8000EDD14FF0004009B0BDE8F08F416B090740
:105A900003D5C0F838800820F5E7416B890703D5A6
:105AA000C0F838900220EEE7416B890603D520212B
:105AB00081630846E7E740F2FF518163009800BA2E
:105AC0007060019800BA30600020DCE710B590B03B
:105AD00004460120ADF838002068FFF770FC00286C
:105AE00064D0606C032842D02068FFF7ACFD00282A
:105AF0005AD100212068FFF766FC60670421206806
:105B0000FFF761FCA06708212068FFF75CFCE067F5
:105B10000C212068FFF757FCC4F88000606C032854
:105B200025D00EA92068FFF7EBFD00283CD1606C62
:105B300003281CD0BDF83800206501042068FFF759
:105B400098FD002830D100212068FFF73CFC6066FA
:105B500004212068FFF737FCA06608212068FFF7C2
:105B600032FCE0660C212068FFF72DFC2067042141
:105B70002068FFF728FC000DE06403A92046FBF72E
:105B800044FBB4F85000002302042068FFF742FDF4
:105B9000002809D104F1100007C88DE8070094E837
:105BA0000F00FFF716FC002010B010BD4FF0806012
:105BB000FAE72DE9F8430025044600950068FFF751
:105BC0009BFC00281AD12068FFF7BEFC4FF08078BC
:105BD0004FF6FF76D8B14FF08057A5640098411C6E
:105BE0000091B0421AD000212068FFF720FC20B9B4
:105BF00000212068FFF734FC10B13846BDE8F88377
:105C000000212068FFF7DFFBC00FE7D01FE001276E
:105C1000A7640098411C0091B04201D14046EDE7D5
:105C200000212068FFF703FC0028E7D14FF08041F6
:105C30002068FFF715FC0028E0D100212068FFF75D
:105C4000C2FBC10FE5D0400001D5676400E0656488
:105C50000020D3E71CB504460020009001900021ED
:105C60002068FFF7B0FB800102D54FF400601CBD37
:105C700069462046FFF7C0FE0028F8D10198C0030E
:105C80000CD5B4F8500001042068FFF7D0FB0028C1
:105C9000EDD100212068FFF716FC1CBD4FF080609D
:105CA0001CBD1CB504460020009001900021206816
:105CB000FFF789FB800102D54FF400601CBD6946E7
:105CC0002046FFF799FE0028F8D1019840030CD533
:105CD000B4F8500001042068FFF7A9FB0028EDD1BB
:105CE00002212068FFF7EFFB1CBD4FF080601CBD58
:105CF000704710B5FAF7B8FEBDE81040FBF7EFBDEE
:105D000030B58FB001210804CDE9001000240294C1
:105D100002250491CDE907504FF4E0100990684640
:105D2000FBF75CF808B1AE210DE00F20CDE90A05C4
:105D30004FF48060CDE90C4002210AA80E94FAF7D6
:105D400047FF18B1BC210AA000F02AF9FAF7EAFFD0
:105D50004FF47A71B0FBF1F0FBF7ADFD0420FBF7D7
:105D60009DFD00221146501EFAF700FF0FB030BD16
:105D70002E2E2F5372632F6D61696E2E630000000B
:105D80000D48016841F00101016041680B4A114072
:105D9000416001680A4A11400160016821F48021D4
:105DA0000160416821F4FE0141604FF41F018160F0
:105DB0000449C00308607047001002400000FFF86B
:105DC000FFFFF6FE08ED00E02DE9F0410446006813
:105DD0000169E26821F44051114301612169A06821
:105DE0000843616908432168CA6841F20C639A4319
:105DF0000243CA6020684169A26921F440711143DD
:105E000041614C4920686425322688423CD1FAF72A
:105E10009FFF00EBC00101EB001061688900B0FB3F
:105E2000F1F7FAF795FF00EBC00101EB0010616894
:105E3000B0468900B0FBF1F0B0FBF5F06FF018014F
:105E4000484307EB800106EB0110B0FBF5F000F0D2
:105E5000F006FAF77DFF00EBC00101EB001061686E
:105E60008900B0FBF1F0B0FBF5F006EB0016FAF795
:105E70006FFF00EBC00101EB001061688900B0FB0F
:105E8000F1F7FAF765FF3BE0FAF752FF00EBC001CC
:105E900001EB001061688900B0FBF1F7FAF748FFE9
:105EA00000EBC00101EB00106168B0468900B0FB57
:105EB000F1F0B0FBF5F06FF01801484307EB8001FB
:105EC00006EB0110B0FBF5F000F0F006FAF730FF3A
:105ED00000EBC00101EB001061688900B0FBF1F03C
:105EE000B0FBF5F006EB0016FAF722FF00EBC0015D
:105EF00001EB001061688900B0FBF1F7FAF718FFB9
:105F000000EBC00101EB001061688900B0FBF1F00B
:105F1000B0FBF5F06FF01801484307EB800108EB88
:105F20000110B0FBF5F0216800F00F0030448860EC
:105F3000BDE8F081003801402DE9F0419846174650
:105F40000E460446069D1DE0681C1BD02DB1FAF7D5
:105F500085FDA0EB0800A84214D92068C16821F48F
:105F6000D071C1602068416921F0010141612020A8
:105F700084F8390084F83A00002084F838000320BF
:105F8000BDE8F0812068006836EA000004D00020F7
:105F9000B842D9D00020F3E70120F9E7FEE700007E
:105FA000024602A000F010F8FEE700004572726F92
:105FB000722121206C696E653A202564202C2066B0
:105FC000696C653A257300000FB4054B10B503A941
:105FD000044A029800F050F810BC5DF814FB000071
:105FE000396300081C00002002E008C8121F08C125
:105FF000002AFAD170477047002001E001C1121F4A
:10600000002AFBD170472DE9FF5F8246C91DC817E2
:1060100001EB507020F007000026019030460299F5
:106020008046884225DA002501980199C0172F463D
:1060300001EB507917E00E98002400EB080B1AF8DA
:1060400006108020E040014207D003981FFA8BF130
:10605000284480B20F9AFAF73DFA641C6D1C082C94
:10606000EDDB761C7F1CB7EBE90FE4DB08F10100E8
:10607000D5E7BDE8FF9F00002DE9FF4F8DB09B469F
:106080000F460446002606E025280BD05A460F99F5
:106090009047641C761C20780028F5D111B030465A
:1060A000BDE8F08F0025A8460122984900E005438D
:1060B00014F8013F203B02FA03F00842F7D12078A0
:1060C0002E2817D114F8010F45F004052A280ED008
:1060D0006FF02F022078A0F1300109290AD808EBCF
:1060E000880102EB410100EB0108641CF2E757F85C
:1060F000048B641C20786C280DD004DC4C2812D052
:106100006A2811D104E074280DD07A280CD10AE055
:1061100045F4001507E0617845F48015814202D10D
:10612000641C05F58015641C2278692A45D008DCBA
:10613000002AB3D0582A69D0632A10D0642A08D123
:106140003BE0702A67D0732A13D0752A5CD0782A76
:106150005CD010465A460F999047761CD3E017F84A
:10616000040B8DF8000000208DF80100E9460120A5
:1061700003E057F8049B4FF0FF3069074FF000052C
:1061800001D40AE06D1C45450DDA8542FADB19F8A9
:1061900005100029F6D106E06D1C8542FCDB19F8DC
:1061A00005100029F8D12E4404E019F8010B5A46D5
:1061B0000F9990476D1EF8D2A5E00A200021CDE985
:1061C0000801C5F3025002280DD001CFC117031EEC
:1061D00071F100030DDA4FF0000CD0EB0C006CEB0A
:1061E00001012D2308E0FF1D27F00707F7E8020152
:1061F000EDE72B0504D52B238DF8283001233BE058
:10620000EB0739D02023F7E70A2000E01020002117
:10621000CDE9080107E01020002145F00405CDE993
:1062200008014FF00808C5F3025002280FD001CF33
:1062300000214FF0000A2B071FD5702A0DD0DDE991
:1062400008C38CF0100C5CEA030C0CD015E0FF1DA9
:1062500027F00707F7E80201EBE740228DF8282036
:106260004FF0010A0BE050EA010306D030238DF80D
:1062700028308DF8292002239A46582A04D024A2D7
:106280000DF120090B9209E026A2F9E7DDE90823C8
:10629000FAF724F80B9B9B5C09F8013D50EA0102D8
:1062A000F4D1ADEB090020300890680701D44FF01D
:1062B00001080899884502DDA8EB010000E00020F4
:1062C0008046002506E00AA85A46405D0F9990478F
:1062D0006D1C761C5545F6DB04E030205A460F99BC
:1062E0009047761CB8F10001A8F10108F5DC05E043
:1062F00019F8010B5A460F999047761C0899481EC9
:1063000008900029F4DC641CC5E60000092801009F
:10631000303132333435363738396162636465661B
:1063200000000000303132333435363738394142DD
:10633000434445460000000013B54FF6FF730122A9
:1063400069460248FBF72CFB00981CBDE8000020C2
:10635000ADF5846DFAF790FBFFF7D2FCFEF714FE63
:10636000FEF78AFEFEF7C4FDFEF758FE30A0FFF7E9
:106370002BFE18210DF20440F9F70DFF2F48FBF713
:1063800031F8042845D02EA0FFF71EFE4FF400740C
:10639000214601A8F9F7FFFE214681A8F9F7FBFE87
:1063A000002001A90854401C80B2A042FAD34FF04B
:1063B000FF340123002221480094FBF775F90320E4
:1063C000FAF706FA0123002281A91C480094FBF782
:1063D00091F89DF87F121FA0FFF7F6FD4AF2516079
:1063E000FAF700F94FF448421F492048FEF73AFDFA
:1063F0001F48FAF701F96422322311461046FEF7CE
:1064000073FE1CA1C161816888471BA0FFF7DCFDFA
:10641000FEE70DF204410948FAF79EFE1AA0FFF7C5
:10642000D3FD0648816D1CA0FFF7CEFDAEE700004E
:1064300073746172743A0D0A000000006400002059
:106440005344BFA8B3F5CABCBBAFCAA7B0DC0D0AA2
:106450000000000072446174615B3132335D203DA5
:106460002025640D0A0000004801002038010020AA
:1064700020650008CED200002D2D2D2D454E442D37
:106480002D2D2D0D0A000000534420B3F5CABCBBCE
:10649000AFB3C9B9A6A3BA00426C6F636B53697AF4
:1064A00065203D2025640D0A00000000000000006A
:1064B00000000000010203040607080900000000B4
:1064C0000102030400000000040000660007C4602D
:1064D0003904300104100104100104087FFFFC019D
:1064E000040001060001063001362001C2400F02FF
:1064F000C0790380210300010700010D840110C44D
:1065000001E0740F001C02000600000018180300D0
:10651000C4640008116211620C65000800000000EC
:10652000011818010100000014650008150B100087
:10653000CCA11A22546500080000002020000000B1
:10654000E85F0008746500082000002028CD0000E6
:10655000F85F0008000000000000000001000000DB
:10656000100000000000000000A24A04000000002B
:046570000000000027
:0400000508000131BD
:00000001FF
