Component: ARM Compiler 5.06 update 6 (build 750) Tool: armlink [4d35ed]

==============================================================================

Section Cross References

    startup_stm32f103xe.o(RESET) refers to startup_stm32f103xe.o(STACK) for __initial_sp
    startup_stm32f103xe.o(RESET) refers to startup_stm32f103xe.o(.text) for Reset_Handler
    startup_stm32f103xe.o(RESET) refers to stm32f1xx_it.o(i.NMI_Handler) for NMI_Handler
    startup_stm32f103xe.o(RESET) refers to stm32f1xx_it.o(i.HardFault_Handler) for HardFault_Handler
    startup_stm32f103xe.o(RESET) refers to stm32f1xx_it.o(i.MemManage_Handler) for MemManage_Handler
    startup_stm32f103xe.o(RESET) refers to stm32f1xx_it.o(i.BusFault_Handler) for BusFault_Handler
    startup_stm32f103xe.o(RESET) refers to stm32f1xx_it.o(i.UsageFault_Handler) for UsageFault_Handler
    startup_stm32f103xe.o(RESET) refers to stm32f1xx_it.o(i.SVC_Handler) for SVC_Handler
    startup_stm32f103xe.o(RESET) refers to stm32f1xx_it.o(i.DebugMon_Handler) for DebugMon_Handler
    startup_stm32f103xe.o(RESET) refers to stm32f1xx_it.o(i.PendSV_Handler) for PendSV_Handler
    startup_stm32f103xe.o(RESET) refers to stm32f1xx_it.o(i.SysTick_Handler) for SysTick_Handler
    startup_stm32f103xe.o(.text) refers to system_stm32f1xx.o(i.SystemInit) for SystemInit
    startup_stm32f103xe.o(.text) refers to entry.o(.ARM.Collect$$$$00000000) for __main
    main.o(i.SystemClock_Config) refers to stm32f1xx_hal_rcc.o(i.HAL_RCC_OscConfig) for HAL_RCC_OscConfig
    main.o(i.SystemClock_Config) refers to stm32f1xx_hal_rcc.o(i.HAL_RCC_ClockConfig) for HAL_RCC_ClockConfig
    main.o(i.SystemClock_Config) refers to main.o(i._Error_Handler) for _Error_Handler
    main.o(i.SystemClock_Config) refers to stm32f1xx_hal_rcc.o(i.HAL_RCC_GetHCLKFreq) for HAL_RCC_GetHCLKFreq
    main.o(i.SystemClock_Config) refers to stm32f1xx_hal_cortex.o(i.HAL_SYSTICK_Config) for HAL_SYSTICK_Config
==============================================================================

Removing Unused input sections from the image.

    Removing startup_stm32f103xe.o(HEAP), (512 bytes).
    Removing main.o(.rev16_text), (4 bytes).
    Removing main.o(.revsh_text), (4 bytes).
    Removing main.o(.rrx_text), (6 bytes).
    Removing gpio.o(.rev16_text), (4 bytes).
    Removing gpio.o(.revsh_text), (4 bytes).
    Removing gpio.o(.rrx_text), (6 bytes).
    Removing fsmc.o(.rev16_text), (4 bytes).
    Removing fsmc.o(.revsh_text), (4 bytes).
    Removing fsmc.o(.rrx_text), (6 bytes).
    Removing fsmc.o(i.HAL_SRAM_MspDeInit), (80 bytes).
    Removing sdio.o(.rev16_text), (4 bytes).
    Removing sdio.o(.revsh_text), (4 bytes).
    Removing sdio.o(.rrx_text), (6 bytes).
    Removing sdio.o(i.HAL_SD_MspDeInit), (60 bytes).
    Removing usart.o(.rev16_text), (4 bytes).
    Removing usart.o(.revsh_text), (4 bytes).
    Removing usart.o(.rrx_text), (6 bytes).
==============================================================================

Image Symbol Table

    Local Symbols

    Symbol Name                              Value     Ov Type        Size  Object(Section)

    ..//Src/system_stm32f1xx.c               0x00000000   Number         0  system_stm32f1xx.o ABSOLUTE
    ../Drivers/STM32F1xx_HAL_Driver/Src/stm32f1xx_hal.c 0x00000000   Number         0  stm32f1xx_hal.o ABSOLUTE
    ../Drivers/STM32F1xx_HAL_Driver/Src/stm32f1xx_hal_cortex.c 0x00000000   Number         0  stm32f1xx_hal_cortex.o ABSOLUTE
    ../Drivers/STM32F1xx_HAL_Driver/Src/stm32f1xx_hal_dma.c 0x00000000   Number         0  stm32f1xx_hal_dma.o ABSOLUTE
    ../Drivers/STM32F1xx_HAL_Driver/Src/stm32f1xx_hal_flash.c 0x00000000   Number         0  stm32f1xx_hal_flash.o ABSOLUTE
    ../Drivers/STM32F1xx_HAL_Driver/Src/stm32f1xx_hal_flash_ex.c 0x00000000   Number         0  stm32f1xx_hal_flash_ex.o ABSOLUTE
    ../Drivers/STM32F1xx_HAL_Driver/Src/stm32f1xx_hal_gpio.c 0x00000000   Number         0  stm32f1xx_hal_gpio.o ABSOLUTE
    ../Drivers/STM32F1xx_HAL_Driver/Src/stm32f1xx_hal_gpio_ex.c 0x00000000   Number         0  stm32f1xx_hal_gpio_ex.o ABSOLUTE
    ../Drivers/STM32F1xx_HAL_Driver/Src/stm32f1xx_hal_pwr.c 0x00000000   Number         0  stm32f1xx_hal_pwr.o ABSOLUTE
    ../Drivers/STM32F1xx_HAL_Driver/Src/stm32f1xx_hal_rcc.c 0x00000000   Number         0  stm32f1xx_hal_rcc.o ABSOLUTE
    ../Drivers/STM32F1xx_HAL_Driver/Src/stm32f1xx_hal_rcc_ex.c 0x00000000   Number         0  stm32f1xx_hal_rcc_ex.o ABSOLUTE
    ../Drivers/STM32F1xx_HAL_Driver/Src/stm32f1xx_hal_sd.c 0x00000000   Number         0  stm32f1xx_hal_sd.o ABSOLUTE
    ../Drivers/STM32F1xx_HAL_Driver/Src/stm32f1xx_hal_sram.c 0x00000000   Number         0  stm32f1xx_hal_sram.o ABSOLUTE
    ../Drivers/STM32F1xx_HAL_Driver/Src/stm32f1xx_hal_tim.c 0x00000000   Number         0  stm32f1xx_hal_tim.o ABSOLUTE
    ../Drivers/STM32F1xx_HAL_Driver/Src/stm32f1xx_hal_tim_ex.c 0x00000000   Number         0  stm32f1xx_hal_tim_ex.o ABSOLUTE
    ../Drivers/STM32F1xx_HAL_Driver/Src/stm32f1xx_hal_uart.c 0x00000000   Number         0  stm32f1xx_hal_uart.o ABSOLUTE
    ../Drivers/STM32F1xx_HAL_Driver/Src/stm32f1xx_ll_fsmc.c 0x00000000   Number         0  stm32f1xx_ll_fsmc.o ABSOLUTE
    ../Drivers/STM32F1xx_HAL_Driver/Src/stm32f1xx_ll_sdmmc.c 0x00000000   Number         0  stm32f1xx_ll_sdmmc.o ABSOLUTE
    ../Src/fsmc.c                            0x00000000   Number         0  fsmc.o ABSOLUTE
    ../Src/gpio.c                            0x00000000   Number         0  gpio.o ABSOLUTE
    ../Src/main.c                            0x00000000   Number         0  main.o ABSOLUTE
    ../Src/sdio.c                            0x00000000   Number         0  sdio.o ABSOLUTE
    ../Src/stm32f1xx_hal_msp.c               0x00000000   Number         0  stm32f1xx_hal_msp.o ABSOLUTE
    ../Src/stm32f1xx_it.c                    0x00000000   Number         0  stm32f1xx_it.o ABSOLUTE
    ../Src/usart.c                           0x00000000   Number         0  usart.o ABSOLUTE
    ../clib/microlib/division.c              0x00000000   Number         0  uldiv.o ABSOLUTE
    ../clib/microlib/division.c              0x00000000   Number         0  uidiv.o ABSOLUTE
    ../clib/microlib/init/entry.s            0x00000000   Number         0  entry7a.o ABSOLUTE
    ../clib/microlib/init/entry.s            0x00000000   Number         0  entry7b.o ABSOLUTE
    ../clib/microlib/init/entry.s            0x00000000   Number         0  entry8b.o ABSOLUTE
    ../clib/microlib/init/entry.s            0x00000000   Number         0  entry11a.o ABSOLUTE
    ../clib/microlib/init/entry.s            0x00000000   Number         0  entry.o ABSOLUTE
    ../clib/microlib/init/entry.s            0x00000000   Number         0  entry9a.o ABSOLUTE
    ../clib/microlib/init/entry.s            0x00000000   Number         0  entry11b.o ABSOLUTE
    ../clib/microlib/init/entry.s            0x00000000   Number         0  entry2.o ABSOLUTE
    ../clib/microlib/init/entry.s            0x00000000   Number         0  entry5.o ABSOLUTE
    ../clib/microlib/init/entry.s            0x00000000   Number         0  entry8a.o ABSOLUTE
    ../clib/microlib/init/entry.s            0x00000000   Number         0  entry10b.o ABSOLUTE
    ../clib/microlib/init/entry.s            0x00000000   Number         0  entry9b.o ABSOLUTE
    ../clib/microlib/init/entry.s            0x00000000   Number         0  entry10a.o ABSOLUTE
    ../clib/microlib/longlong.c              0x00000000   Number         0  llushr.o ABSOLUTE
    ../clib/microlib/longlong.c              0x00000000   Number         0  llsshr.o ABSOLUTE
    ../clib/microlib/longlong.c              0x00000000   Number         0  llshl.o ABSOLUTE
    ../clib/microlib/printf/printf.c         0x00000000   Number         0  printf4.o ABSOLUTE
    ../clib/microlib/printf/printf.c         0x00000000   Number         0  printfa.o ABSOLUTE
    ../clib/microlib/printf/printf.c         0x00000000   Number         0  printf1.o ABSOLUTE
    ../clib/microlib/printf/printf.c         0x00000000   Number         0  printf5.o ABSOLUTE
    ../clib/microlib/printf/printf.c         0x00000000   Number         0  printf7.o ABSOLUTE
    ../clib/microlib/printf/printf.c         0x00000000   Number         0  printf3.o ABSOLUTE
    ../clib/microlib/printf/printf.c         0x00000000   Number         0  printf2.o ABSOLUTE
    ../clib/microlib/printf/printf.c         0x00000000   Number         0  printf0.o ABSOLUTE
    ../clib/microlib/printf/printf.c         0x00000000   Number         0  printfb.o ABSOLUTE
    ../clib/microlib/printf/printf.c         0x00000000   Number         0  printf6.o ABSOLUTE
    ../clib/microlib/printf/printf.c         0x00000000   Number         0  printf8.o ABSOLUTE
    ../clib/microlib/printf/stubs.s          0x00000000   Number         0  stubs.o ABSOLUTE
    ../clib/microlib/stdio/streams.c         0x00000000   Number         0  stdout.o ABSOLUTE
    ../clib/microlib/string/memset.c         0x00000000   Number         0  memseta.o ABSOLUTE
    ../clib/microlib/stubs.s                 0x00000000   Number         0  iusefp.o ABSOLUTE
    ../fplib/microlib/d2f.c                  0x00000000   Number         0  d2f.o ABSOLUTE
    ../fplib/microlib/f2d.c                  0x00000000   Number         0  f2d.o ABSOLUTE
    ../fplib/microlib/fpadd.c                0x00000000   Number         0  dadd.o ABSOLUTE
    ../fplib/microlib/fpadd.c                0x00000000   Number         0  fadd.o ABSOLUTE
    ../fplib/microlib/fpdiv.c                0x00000000   Number         0  ddiv.o ABSOLUTE
    ../fplib/microlib/fpepilogue.c           0x00000000   Number         0  depilogue.o ABSOLUTE
    ../fplib/microlib/fpepilogue.c           0x00000000   Number         0  fepilogue.o ABSOLUTE
    ../fplib/microlib/fpfix.c                0x00000000   Number         0  dfixui.o ABSOLUTE
    ../fplib/microlib/fpfix.c                0x00000000   Number         0  ffixui.o ABSOLUTE
    ../fplib/microlib/fpfix.c                0x00000000   Number         0  dfixul.o ABSOLUTE
    ../fplib/microlib/fpflt.c                0x00000000   Number         0  ffltui.o ABSOLUTE
    ../fplib/microlib/fpflt.c                0x00000000   Number         0  fflti.o ABSOLUTE
    ../fplib/microlib/fpflt.c                0x00000000   Number         0  dfltui.o ABSOLUTE
    ../fplib/microlib/fpmul.c                0x00000000   Number         0  fmul.o ABSOLUTE
    ../fplib/microlib/fpmul.c                0x00000000   Number         0  dmul.o ABSOLUTE
    ..\..\..\basic\CUIGUI_COLOR.C            0x00000000   Number         0  cuigui_color.o ABSOLUTE
    ..\..\..\basic\CUIGUI_LCDDRIVER.C        0x00000000   Number         0  cuigui_lcddriver.o ABSOLUTE
    ..\..\..\basic\GUI.C                     0x00000000   Number         0  gui.o ABSOLUTE
    ..\..\..\config\lcd\lcd.c                0x00000000   Number         0  lcd.o ABSOLUTE
    ..\..\..\font\MicrosoftYaHeiASCII24.c    0x00000000   Number         0  microsoftyaheiascii24.o ABSOLUTE
    ..\..\..\font\cc936.c                    0x00000000   Number         0  cc936.o ABSOLUTE
    ..\..\..\font\songti24.c                 0x00000000   Number         0  songti24.o ABSOLUTE
    ..\..\..\guimodule\CUIGUI_BUTTON.C       0x00000000   Number         0  cuigui_button.o ABSOLUTE
    ..\..\..\layout\RELATIVE_LAYOUT.C        0x00000000   Number         0  relative_layout.o ABSOLUTE
    ..\..\..\malloc\List4_Malloc.C           0x00000000   Number         0  list4_malloc.o ABSOLUTE
    ..\Drivers\STM32F1xx_HAL_Driver\Src\stm32f1xx_hal.c 0x00000000   Number         0  stm32f1xx_hal.o ABSOLUTE
    ..\Drivers\STM32F1xx_HAL_Driver\Src\stm32f1xx_hal_cortex.c 0x00000000   Number         0  stm32f1xx_hal_cortex.o ABSOLUTE
    ..\Drivers\STM32F1xx_HAL_Driver\Src\stm32f1xx_hal_dma.c 0x00000000   Number         0  stm32f1xx_hal_dma.o ABSOLUTE
    ..\Drivers\STM32F1xx_HAL_Driver\Src\stm32f1xx_hal_flash.c 0x00000000   Number         0  stm32f1xx_hal_flash.o ABSOLUTE
    ..\Drivers\STM32F1xx_HAL_Driver\Src\stm32f1xx_hal_flash_ex.c 0x00000000   Number         0  stm32f1xx_hal_flash_ex.o ABSOLUTE
    ..\Drivers\STM32F1xx_HAL_Driver\Src\stm32f1xx_hal_gpio.c 0x00000000   Number         0  stm32f1xx_hal_gpio.o ABSOLUTE
    ..\Drivers\STM32F1xx_HAL_Driver\Src\stm32f1xx_hal_gpio_ex.c 0x00000000   Number         0  stm32f1xx_hal_gpio_ex.o ABSOLUTE
    ..\Drivers\STM32F1xx_HAL_Driver\Src\stm32f1xx_hal_pwr.c 0x00000000   Number         0  stm32f1xx_hal_pwr.o ABSOLUTE
    ..\Drivers\STM32F1xx_HAL_Driver\Src\stm32f1xx_hal_rcc.c 0x00000000   Number         0  stm32f1xx_hal_rcc.o ABSOLUTE
    ..\Drivers\STM32F1xx_HAL_Driver\Src\stm32f1xx_hal_rcc_ex.c 0x00000000   Number         0  stm32f1xx_hal_rcc_ex.o ABSOLUTE
    ..\Drivers\STM32F1xx_HAL_Driver\Src\stm32f1xx_hal_sd.c 0x00000000   Number         0  stm32f1xx_hal_sd.o ABSOLUTE
    ..\Drivers\STM32F1xx_HAL_Driver\Src\stm32f1xx_hal_sram.c 0x00000000   Number         0  stm32f1xx_hal_sram.o ABSOLUTE
    ..\Drivers\STM32F1xx_HAL_Driver\Src\stm32f1xx_hal_tim.c 0x00000000   Number         0  stm32f1xx_hal_tim.o ABSOLUTE
    ..\Drivers\STM32F1xx_HAL_Driver\Src\stm32f1xx_hal_tim_ex.c 0x00000000   Number         0  stm32f1xx_hal_tim_ex.o ABSOLUTE
    ..\Drivers\STM32F1xx_HAL_Driver\Src\stm32f1xx_hal_uart.c 0x00000000   Number         0  stm32f1xx_hal_uart.o ABSOLUTE
    ..\Drivers\STM32F1xx_HAL_Driver\Src\stm32f1xx_ll_fsmc.c 0x00000000   Number         0  stm32f1xx_ll_fsmc.o ABSOLUTE
    ..\Drivers\STM32F1xx_HAL_Driver\Src\stm32f1xx_ll_sdmmc.c 0x00000000   Number         0  stm32f1xx_ll_sdmmc.o ABSOLUTE
    ..\Src\fsmc.c                            0x00000000   Number         0  fsmc.o ABSOLUTE
    ..\Src\gpio.c                            0x00000000   Number         0  gpio.o ABSOLUTE
    ..\Src\main.c                            0x00000000   Number         0  main.o ABSOLUTE
    ..\Src\sdio.c                            0x00000000   Number         0  sdio.o ABSOLUTE
    ..\Src\stm32f1xx_hal_msp.c               0x00000000   Number         0  stm32f1xx_hal_msp.o ABSOLUTE
    ..\Src\stm32f1xx_it.c                    0x00000000   Number         0  stm32f1xx_it.o ABSOLUTE
    ..\Src\usart.c                           0x00000000   Number         0  usart.o ABSOLUTE
    ..\\..\\..\\basic\\CUIGUI_COLOR.C        0x00000000   Number         0  cuigui_color.o ABSOLUTE
    ..\\..\\..\\basic\\CUIGUI_LCDDRIVER.C    0x00000000   Number         0  cuigui_lcddriver.o ABSOLUTE
    ..\\..\\..\\basic\\GUI.C                 0x00000000   Number         0  gui.o ABSOLUTE
    ..\\..\\..\\config\\lcd\\lcd.c           0x00000000   Number         0  lcd.o ABSOLUTE
    ..\\..\\..\\font\\MicrosoftYaHeiASCII24.c 0x00000000   Number         0  microsoftyaheiascii24.o ABSOLUTE
    ..\\..\\..\\font\\cc936.c                0x00000000   Number         0  cc936.o ABSOLUTE
    ..\\..\\..\\font\\songti24.c             0x00000000   Number         0  songti24.o ABSOLUTE
    ..\\..\\..\\guimodule\\CUIGUI_BUTTON.C   0x00000000   Number         0  cuigui_button.o ABSOLUTE
    ..\\..\\..\\layout\\RELATIVE_LAYOUT.C    0x00000000   Number         0  relative_layout.o ABSOLUTE
    ..\\..\\..\\malloc\\List4_Malloc.C       0x00000000   Number         0  list4_malloc.o ABSOLUTE
    ..\\Src\system_stm32f1xx.c               0x00000000   Number         0  system_stm32f1xx.o ABSOLUTE
    cdcmple.s                                0x00000000   Number         0  cdcmple.o ABSOLUTE
    cdrcmple.s                               0x00000000   Number         0  cdrcmple.o ABSOLUTE
    dc.s                                     0x00000000   Number         0  dc.o ABSOLUTE
    handlers.s                               0x00000000   Number         0  handlers.o ABSOLUTE
    init.s                                   0x00000000   Number         0  init.o ABSOLUTE
    startup_stm32f103xe.s                    0x00000000   Number         0  startup_stm32f103xe.o ABSOLUTE
    RESET                                    0x08000000   Section      304  startup_stm32f103xe.o(RESET)
    .ARM.Collect$$$$00000000                 0x08000130   Section        0  entry.o(.ARM.Collect$$$$00000000)
    .ARM.Collect$$$$00000001                 0x08000130   Section        4  entry2.o(.ARM.Collect$$$$00000001)
    .ARM.Collect$$$$00000004                 0x08000134   Section        4  entry5.o(.ARM.Collect$$$$00000004)
    .ARM.Collect$$$$00000008                 0x08000138   Section        0  entry7b.o(.ARM.Collect$$$$00000008)
    .ARM.Collect$$$$0000000A                 0x08000138   Section        0  entry8b.o(.ARM.Collect$$$$0000000A)
    .ARM.Collect$$$$0000000B                 0x08000138   Section        8  entry9a.o(.ARM.Collect$$$$0000000B)
    .ARM.Collect$$$$0000000D                 0x08000140   Section        0  entry10a.o(.ARM.Collect$$$$0000000D)
    .ARM.Collect$$$$0000000F                 0x08000140   Section        0  entry11a.o(.ARM.Collect$$$$0000000F)
    .ARM.Collect$$$$00002712                 0x08000140   Section        4  entry2.o(.ARM.Collect$$$$00002712)
    __lit__00000000                          0x08000140   Data           4  entry2.o(.ARM.Collect$$$$00002712)
    .text                                    0x08000144   Section       36  startup_stm32f103xe.o(.text)
    .text                                    0x08000168   Section        0  llushr.o(.text)
    .text                                    0x08000188   Section        0  memseta.o(.text)
    .text                                    0x080001ac   Section        0  dmul.o(.text)
    .text                                    0x08000290   Section        0  dfltui.o(.text)
    .text                                    0x080002aa   Section        0  dfixui.o(.text)
    .text                                    0x080002dc   Section        0  uldiv.o(.text)
    .text                                    0x0800033e   Section        0  iusefp.o(.text)
    .text                                    0x0800033e   Section        0  depilogue.o(.text)
    .text                                    0x080003f8   Section       36  init.o(.text)
    .text                                    0x0800041c   Section        0  llshl.o(.text)
    i.BtSkin                                 0x0800043a   Section        0  cuigui_button.o(i.BtSkin)
    i.BtText                                 0x08000448   Section        0  cuigui_button.o(i.BtText)
    i.BusFault_Handler                       0x0800049c   Section        0  stm32f1xx_it.o(i.BusFault_Handler)
    i.CUIGUI_Color                           0x0800049e   Section        0  cuigui_color.o(i.CUIGUI_Color)
    i.CUIGUI_DrawHLine                       0x080004b0   Section        0  cuigui_lcddriver.o(i.CUIGUI_DrawHLine)
    i.CUIGUI_DrawPoint                       0x080004d4   Section        0  cuigui_lcddriver.o(i.CUIGUI_DrawPoint)
    i.CUIGUI_DrawStr                         0x080004d8   Section        0  gui.o(i.CUIGUI_DrawStr)
    i.CUIGUI_DrawVLine                       0x0800050c   Section        0  cuigui_lcddriver.o(i.CUIGUI_DrawVLine)
    i.CUIGUI_DrawWord                        0x08000530   Section        0  gui.o(i.CUIGUI_DrawWord)
    i.CUIGUI_FillRect                        0x08000590   Section        0  cuigui_lcddriver.o(i.CUIGUI_FillRect)
    i.CUIGUI_GetFont                         0x080005d8   Section        0  gui.o(i.CUIGUI_GetFont)
    i.CUIGUI_Init                            0x080005e4   Section        0  cuigui_lcddriver.o(i.CUIGUI_Init)
    i.CUIGUI_SetFont                         0x080005f8   Section        0  gui.o(i.CUIGUI_SetFont)
    i.DebugMon_Handler                       0x08000604   Section        0  stm32f1xx_it.o(i.DebugMon_Handler)
    i.DefaultDrawButton                      0x08000606   Section        0  cuigui_button.o(i.DefaultDrawButton)
    i.FSMC_NORSRAM_Extended_Timing_Init      0x08000618   Section        0  stm32f1xx_ll_fsmc.o(i.FSMC_NORSRAM_Extended_Timing_Init)
    i.FSMC_NORSRAM_Init                      0x08000654   Section        0  stm32f1xx_ll_fsmc.o(i.FSMC_NORSRAM_Init)
    i.FSMC_NORSRAM_Timing_Init               0x080006ec   Section        0  stm32f1xx_ll_fsmc.o(i.FSMC_NORSRAM_Timing_Init)
    i.GBK2UNICODE                            0x08000730   Section        0  gui.o(i.GBK2UNICODE)
    i.GetLengthStr                           0x0800075c   Section        0  gui.o(i.GetLengthStr)
    i.GetUnicode                             0x08000784   Section        0  gui.o(i.GetUnicode)
    i.GetWordWidth                           0x08000788   Section        0  gui.o(i.GetWordWidth)
    i.GetXORColor                            0x080007c8   Section        0  cuigui_lcddriver.o(i.GetXORColor)
    i.HAL_Delay                              0x080007d0   Section        0  stm32f1xx_hal.o(i.HAL_Delay)
    i.HAL_FSMC_MspInit                       0x080007f4   Section        0  fsmc.o(i.HAL_FSMC_MspInit)
    HAL_FSMC_MspInit                         0x080007f5   Thumb Code    96  fsmc.o(i.HAL_FSMC_MspInit)
    i.HAL_GPIO_Init                          0x08000868   Section        0  stm32f1xx_hal_gpio.o(i.HAL_GPIO_Init)
    i.HAL_GPIO_WritePin                      0x08000a50   Section        0  stm32f1xx_hal_gpio.o(i.HAL_GPIO_WritePin)
    i.HAL_GetTick                            0x08000a5c   Section        0  stm32f1xx_hal.o(i.HAL_GetTick)
    i.HAL_IncTick                            0x08000a68   Section        0  stm32f1xx_hal.o(i.HAL_IncTick)
    i.HAL_Init                               0x08000a78   Section        0  stm32f1xx_hal.o(i.HAL_Init)
    i.HAL_InitTick                           0x08000a9c   Section        0  stm32f1xx_hal.o(i.HAL_InitTick)
    i.HAL_MspInit                            0x08000adc   Section        0  stm32f1xx_hal_msp.o(i.HAL_MspInit)
    i.HAL_NVIC_SetPriority                   0x08000b6c   Section        0  stm32f1xx_hal_cortex.o(i.HAL_NVIC_SetPriority)
    i.HAL_NVIC_SetPriorityGrouping           0x08000bac   Section        0  stm32f1xx_hal_cortex.o(i.HAL_NVIC_SetPriorityGrouping)
    i.HAL_RCC_ClockConfig                    0x08000bd0   Section        0  stm32f1xx_hal_rcc.o(i.HAL_RCC_ClockConfig)
    i.HAL_RCC_GetHCLKFreq                    0x08000d24   Section        0  stm32f1xx_hal_rcc.o(i.HAL_RCC_GetHCLKFreq)
    i.HAL_RCC_GetPCLK1Freq                   0x08000d30   Section        0  stm32f1xx_hal_rcc.o(i.HAL_RCC_GetPCLK1Freq)
    i.HAL_RCC_GetPCLK2Freq                   0x08000d50   Section        0  stm32f1xx_hal_rcc.o(i.HAL_RCC_GetPCLK2Freq)
    i.HAL_RCC_GetSysClockFreq                0x08000d70   Section        0  stm32f1xx_hal_rcc.o(i.HAL_RCC_GetSysClockFreq)
    i.HAL_RCC_OscConfig                      0x08000ddc   Section        0  stm32f1xx_hal_rcc.o(i.HAL_RCC_OscConfig)
    i.HAL_SD_ConfigWideBusOperation          0x080010e0   Section        0  stm32f1xx_hal_sd.o(i.HAL_SD_ConfigWideBusOperation)
    i.HAL_SD_GetCardCID                      0x08001158   Section        0  stm32f1xx_hal_sd.o(i.HAL_SD_GetCardCID)
    i.HAL_SD_GetCardCSD                      0x0800120a   Section        0  stm32f1xx_hal_sd.o(i.HAL_SD_GetCardCSD)
    i.HAL_SD_GetCardState                    0x080013e4   Section        0  stm32f1xx_hal_sd.o(i.HAL_SD_GetCardState)
    i.HAL_SD_Init                            0x08001410   Section        0  stm32f1xx_hal_sd.o(i.HAL_SD_Init)
    i.HAL_SD_InitCard                        0x08001448   Section        0  stm32f1xx_hal_sd.o(i.HAL_SD_InitCard)
    i.HAL_SD_MspInit                         0x0800149c   Section        0  sdio.o(i.HAL_SD_MspInit)
    i.HAL_SD_ReadBlocks                      0x080014f4   Section        0  stm32f1xx_hal_sd.o(i.HAL_SD_ReadBlocks)
    i.HAL_SD_WriteBlocks                     0x080016a8   Section        0  stm32f1xx_hal_sd.o(i.HAL_SD_WriteBlocks)
    i.HAL_SRAM_Init                          0x08001842   Section        0  stm32f1xx_hal_sram.o(i.HAL_SRAM_Init)
    i.HAL_SRAM_MspInit                       0x08001898   Section        0  fsmc.o(i.HAL_SRAM_MspInit)
    i.HAL_SYSTICK_CLKSourceConfig            0x0800189c   Section        0  stm32f1xx_hal_cortex.o(i.HAL_SYSTICK_CLKSourceConfig)
    i.HAL_SYSTICK_Callback                   0x080018b4   Section        0  stm32f1xx_hal_cortex.o(i.HAL_SYSTICK_Callback)
    i.HAL_SYSTICK_Config                     0x080018b6   Section        0  stm32f1xx_hal_cortex.o(i.HAL_SYSTICK_Config)
    i.HAL_SYSTICK_IRQHandler                 0x080018de   Section        0  stm32f1xx_hal_cortex.o(i.HAL_SYSTICK_IRQHandler)
    i.HAL_UART_Init                          0x080018e6   Section        0  stm32f1xx_hal_uart.o(i.HAL_UART_Init)
    i.HAL_UART_MspInit                       0x08001948   Section        0  usart.o(i.HAL_UART_MspInit)
    i.HAL_UART_Transmit                      0x080019a0   Section        0  stm32f1xx_hal_uart.o(i.HAL_UART_Transmit)
    i.HardFault_Handler                      0x08001a5a   Section        0  stm32f1xx_it.o(i.HardFault_Handler)
    i.LCD_Clear                              0x08001a5c   Section        0  lcd.o(i.LCD_Clear)
    i.LCD_Display_Dir                        0x08001ac8   Section        0  lcd.o(i.LCD_Display_Dir)
    i.LCD_Fast_DrawPoint                     0x08001bfc   Section        0  lcd.o(i.LCD_Fast_DrawPoint)
    i.LCD_Init                               0x08001d0c   Section        0  lcd.o(i.LCD_Init)
    i.LCD_ReadReg                            0x08004a10   Section        0  lcd.o(i.LCD_ReadReg)
    i.LCD_SSD_BackLightSet                   0x08004a20   Section        0  lcd.o(i.LCD_SSD_BackLightSet)
    i.LCD_Scan_Dir                           0x08004a5c   Section        0  lcd.o(i.LCD_Scan_Dir)
    i.LCD_SetCursor                          0x08004c04   Section        0  lcd.o(i.LCD_SetCursor)
    i.LCD_WriteRAM_Prepare                   0x08004d44   Section        0  lcd.o(i.LCD_WriteRAM_Prepare)
    i.LCD_WriteReg                           0x08004d58   Section        0  lcd.o(i.LCD_WriteReg)
    i.List4_InsertBlock                      0x08004d68   Section        0  list4_malloc.o(i.List4_InsertBlock)
    i.List4_Malloc                           0x08004dbc   Section        0  list4_malloc.o(i.List4_Malloc)
    i.List4_Malloc_Init                      0x08004e64   Section        0  list4_malloc.o(i.List4_Malloc_Init)
    i.MX_FSMC_Init                           0x08004ef0   Section        0  fsmc.o(i.MX_FSMC_Init)
    i.MX_GPIO_Init                           0x08004f88   Section        0  gpio.o(i.MX_GPIO_Init)
    i.MX_SDIO_SD_Init                        0x0800501c   Section        0  sdio.o(i.MX_SDIO_SD_Init)
    i.MX_USART1_UART_Init                    0x08005078   Section        0  usart.o(i.MX_USART1_UART_Init)
    i.MemManage_Handler                      0x080050c4   Section        0  stm32f1xx_it.o(i.MemManage_Handler)
    i.NMI_Handler                            0x080050c6   Section        0  stm32f1xx_it.o(i.NMI_Handler)
    i.NVIC_SetPriority                       0x080050c8   Section        0  stm32f1xx_hal_cortex.o(i.NVIC_SetPriority)
    NVIC_SetPriority                         0x080050c9   Thumb Code    32  stm32f1xx_hal_cortex.o(i.NVIC_SetPriority)
    i.NewButton                              0x080050e8   Section        0  cuigui_button.o(i.NewButton)
    i.Obj_SkinPressed                        0x0800512c   Section        0  cuigui_button.o(i.Obj_SkinPressed)
    i.Obj_SkinUnPressed                      0x08005262   Section        0  cuigui_button.o(i.Obj_SkinUnPressed)
    i.PendSV_Handler                         0x08005398   Section        0  stm32f1xx_it.o(i.PendSV_Handler)
    i.SDIO_ConfigData                        0x0800539a   Section        0  stm32f1xx_ll_sdmmc.o(i.SDIO_ConfigData)
    i.SDIO_GetPowerState                     0x080053be   Section        0  stm32f1xx_ll_sdmmc.o(i.SDIO_GetPowerState)
    i.SDIO_GetResponse                       0x080053c6   Section        0  stm32f1xx_ll_sdmmc.o(i.SDIO_GetResponse)
    i.SDIO_Init                              0x080053d2   Section        0  stm32f1xx_ll_sdmmc.o(i.SDIO_Init)
    i.SDIO_PowerState_ON                     0x080053f6   Section        0  stm32f1xx_ll_sdmmc.o(i.SDIO_PowerState_ON)
    i.SDIO_ReadFIFO                          0x080053fe   Section        0  stm32f1xx_ll_sdmmc.o(i.SDIO_ReadFIFO)
    i.SDIO_SendCommand                       0x08005404   Section        0  stm32f1xx_ll_sdmmc.o(i.SDIO_SendCommand)
    i.SDIO_WriteFIFO                         0x08005424   Section        0  stm32f1xx_ll_sdmmc.o(i.SDIO_WriteFIFO)
    i.SDMMC_CmdAppCommand                    0x0800542e   Section        0  stm32f1xx_ll_sdmmc.o(i.SDMMC_CmdAppCommand)
    i.SDMMC_CmdAppOperCommand                0x08005460   Section        0  stm32f1xx_ll_sdmmc.o(i.SDMMC_CmdAppOperCommand)
    i.SDMMC_CmdBlockLength                   0x08005494   Section        0  stm32f1xx_ll_sdmmc.o(i.SDMMC_CmdBlockLength)
    i.SDMMC_CmdBusWidth                      0x080054c6   Section        0  stm32f1xx_ll_sdmmc.o(i.SDMMC_CmdBusWidth)
    i.SDMMC_CmdGoIdleState                   0x080054f8   Section        0  stm32f1xx_ll_sdmmc.o(i.SDMMC_CmdGoIdleState)
    i.SDMMC_CmdOperCond                      0x08005548   Section        0  stm32f1xx_ll_sdmmc.o(i.SDMMC_CmdOperCond)
    i.SDMMC_CmdReadMultiBlock                0x080055b0   Section        0  stm32f1xx_ll_sdmmc.o(i.SDMMC_CmdReadMultiBlock)
    i.SDMMC_CmdReadSingleBlock               0x080055e2   Section        0  stm32f1xx_ll_sdmmc.o(i.SDMMC_CmdReadSingleBlock)
    i.SDMMC_CmdSelDesel                      0x08005614   Section        0  stm32f1xx_ll_sdmmc.o(i.SDMMC_CmdSelDesel)
    i.SDMMC_CmdSendCID                       0x08005646   Section        0  stm32f1xx_ll_sdmmc.o(i.SDMMC_CmdSendCID)
    i.SDMMC_CmdSendCSD                       0x08005672   Section        0  stm32f1xx_ll_sdmmc.o(i.SDMMC_CmdSendCSD)
    i.SDMMC_CmdSendSCR                       0x0800569e   Section        0  stm32f1xx_ll_sdmmc.o(i.SDMMC_CmdSendSCR)
    i.SDMMC_CmdSendStatus                    0x080056ce   Section        0  stm32f1xx_ll_sdmmc.o(i.SDMMC_CmdSendStatus)
    i.SDMMC_CmdSetRelAdd                     0x08005700   Section        0  stm32f1xx_ll_sdmmc.o(i.SDMMC_CmdSetRelAdd)
    i.SDMMC_CmdStopTransfer                  0x08005730   Section        0  stm32f1xx_ll_sdmmc.o(i.SDMMC_CmdStopTransfer)
    i.SDMMC_CmdWriteMultiBlock               0x08005764   Section        0  stm32f1xx_ll_sdmmc.o(i.SDMMC_CmdWriteMultiBlock)
    i.SDMMC_CmdWriteSingleBlock              0x08005796   Section        0  stm32f1xx_ll_sdmmc.o(i.SDMMC_CmdWriteSingleBlock)
    i.SDMMC_GetCmdResp1                      0x080057c8   Section        0  stm32f1xx_ll_sdmmc.o(i.SDMMC_GetCmdResp1)
    SDMMC_GetCmdResp1                        0x080057c9   Thumb Code   276  stm32f1xx_ll_sdmmc.o(i.SDMMC_GetCmdResp1)
    i.SDMMC_GetCmdResp2                      0x080058e4   Section        0  stm32f1xx_ll_sdmmc.o(i.SDMMC_GetCmdResp2)
    SDMMC_GetCmdResp2                        0x080058e5   Thumb Code    74  stm32f1xx_ll_sdmmc.o(i.SDMMC_GetCmdResp2)
    i.SDMMC_GetCmdResp3                      0x08005934   Section        0  stm32f1xx_ll_sdmmc.o(i.SDMMC_GetCmdResp3)
    SDMMC_GetCmdResp3                        0x08005935   Thumb Code    60  stm32f1xx_ll_sdmmc.o(i.SDMMC_GetCmdResp3)
    i.SDMMC_GetCmdResp6                      0x08005974   Section        0  stm32f1xx_ll_sdmmc.o(i.SDMMC_GetCmdResp6)
    SDMMC_GetCmdResp6                        0x08005975   Thumb Code   128  stm32f1xx_ll_sdmmc.o(i.SDMMC_GetCmdResp6)
    i.SD_FindSCR                             0x080059f8   Section        0  stm32f1xx_hal_sd.o(i.SD_FindSCR)
    SD_FindSCR                               0x080059f9   Thumb Code   212  stm32f1xx_hal_sd.o(i.SD_FindSCR)
    i.SD_InitCard                            0x08005acc   Section        0  stm32f1xx_hal_sd.o(i.SD_InitCard)
    SD_InitCard                              0x08005acd   Thumb Code   230  stm32f1xx_hal_sd.o(i.SD_InitCard)
    i.SD_PowerON                             0x08005bb2   Section        0  stm32f1xx_hal_sd.o(i.SD_PowerON)
    SD_PowerON                               0x08005bb3   Thumb Code   162  stm32f1xx_hal_sd.o(i.SD_PowerON)
    i.SD_WideBus_Disable                     0x08005c54   Section        0  stm32f1xx_hal_sd.o(i.SD_WideBus_Disable)
    SD_WideBus_Disable                       0x08005c55   Thumb Code    78  stm32f1xx_hal_sd.o(i.SD_WideBus_Disable)
    i.SD_WideBus_Enable                      0x08005ca2   Section        0  stm32f1xx_hal_sd.o(i.SD_WideBus_Enable)
    SD_WideBus_Enable                        0x08005ca3   Thumb Code    78  stm32f1xx_hal_sd.o(i.SD_WideBus_Enable)
    i.SVC_Handler                            0x08005cf0   Section        0  stm32f1xx_it.o(i.SVC_Handler)
    i.SysTick_Handler                        0x08005cf2   Section        0  stm32f1xx_it.o(i.SysTick_Handler)
    i.SystemClock_Config                     0x08005d00   Section        0  main.o(i.SystemClock_Config)
    i.SystemInit                             0x08005d80   Section        0  system_stm32f1xx.o(i.SystemInit)
    i.UART_SetConfig                         0x08005dc8   Section        0  stm32f1xx_hal_uart.o(i.UART_SetConfig)
    UART_SetConfig                           0x08005dc9   Thumb Code   364  stm32f1xx_hal_uart.o(i.UART_SetConfig)
    i.UART_WaitOnFlagUntilTimeout            0x08005f38   Section        0  stm32f1xx_hal_uart.o(i.UART_WaitOnFlagUntilTimeout)
    UART_WaitOnFlagUntilTimeout              0x08005f39   Thumb Code   100  stm32f1xx_hal_uart.o(i.UART_WaitOnFlagUntilTimeout)
    i.UsageFault_Handler                     0x08005f9c   Section        0  stm32f1xx_it.o(i.UsageFault_Handler)
    i._Error_Handler                         0x08005fa0   Section        0  main.o(i._Error_Handler)
    i.__0printf$5                            0x08005fc8   Section        0  printf5.o(i.__0printf$5)
    i.__scatterload_copy                     0x08005fe8   Section       14  handlers.o(i.__scatterload_copy)
    i.__scatterload_null                     0x08005ff6   Section        2  handlers.o(i.__scatterload_null)
    i.__scatterload_zeroinit                 0x08005ff8   Section       14  handlers.o(i.__scatterload_zeroinit)
    i._draw_model                            0x08006006   Section        0  gui.o(i._draw_model)
    i._printf_core                           0x08006078   Section        0  printf5.o(i._printf_core)
    _printf_core                             0x08006079   Thumb Code   658  printf5.o(i._printf_core)
    i.fputc                                  0x08006338   Section        0  usart.o(i.fputc)
    i.main                                   0x08006350   Section        0  main.o(i.main)
    .constdata                               0x080064ac   Section       16  system_stm32f1xx.o(.constdata)
    .constdata                               0x080064bc   Section        8  system_stm32f1xx.o(.constdata)
    .constdata                               0x080064c4   Section       72  songti24.o(.constdata)
    .constdata                               0x0800650c   Section        8  songti24.o(.constdata)
    .constdata                               0x08006514   Section       12  songti24.o(.constdata)
    .constdata                               0x08006520   Section       16  songti24.o(.constdata)
    .constdata                               0x08006530   Section        4  gui.o(.constdata)
    Array                                    0x08006530   Data           4  gui.o(.constdata)
    .data                                    0x20000000   Section        8  fsmc.o(.data)
    FSMC_Initialized                         0x20000000   Data           4  fsmc.o(.data)
    FSMC_DeInitialized                       0x20000004   Data           4  fsmc.o(.data)
    .data                                    0x20000008   Section       12  stm32f1xx_hal.o(.data)
    .data                                    0x20000014   Section        4  system_stm32f1xx.o(.data)
    .data                                    0x20000018   Section        4  gui.o(.data)
    .data                                    0x2000001c   Section        4  stdout.o(.data)
    .bss                                     0x20000020   Section       68  fsmc.o(.bss)
    .bss                                     0x20000064   Section      132  sdio.o(.bss)
    .bss                                     0x200000e8   Section       64  usart.o(.bss)
    .bss                                     0x20000128   Section       14  lcd.o(.bss)
    .bss                                     0x20000138   Section       16  list4_malloc.o(.bss)
    .bss                                     0x20000148   Section    51200  list4_malloc.o(.bss)
    STACK                                    0x2000c948   Section     1024  startup_stm32f103xe.o(STACK)

    Global Symbols

    Symbol Name                              Value     Ov Type        Size  Object(Section)

    BuildAttributes$$THM_ISAv4$P$D$K$B$S$PE$A:L22UL41UL21$X:L11$S22US41US21$IEEE1$IW$USESV6$~STKCKD$USESV7$~SHL$OTIME$ROPI$EBA8$MICROLIB$REQ8$PRES8$EABIv2 0x00000000   Number         0  anon$$obj.o ABSOLUTE
    __ARM_use_no_argv                        0x00000000   Number         0  main.o ABSOLUTE
    _printf_a                                0x00000000   Number         0  stubs.o ABSOLUTE
    _printf_c                                0x00000000   Number         0  stubs.o ABSOLUTE
    _printf_charcount                        0x00000000   Number         0  stubs.o ABSOLUTE
    _printf_d                                0x00000000   Number         0  stubs.o ABSOLUTE
    _printf_e                                0x00000000   Number         0  stubs.o ABSOLUTE
    _printf_f                                0x00000000   Number         0  stubs.o ABSOLUTE
    _printf_flags                            0x00000000   Number         0  stubs.o ABSOLUTE
    _printf_fp_dec                           0x00000000   Number         0  stubs.o ABSOLUTE
    _printf_fp_hex                           0x00000000   Number         0  stubs.o ABSOLUTE
    _printf_g                                0x00000000   Number         0  stubs.o ABSOLUTE
    _printf_i                                0x00000000   Number         0  stubs.o ABSOLUTE
    _printf_int_dec                          0x00000000   Number         0  stubs.o ABSOLUTE
    _printf_l                                0x00000000   Number         0  stubs.o ABSOLUTE
    _printf_lc                               0x00000000   Number         0  stubs.o ABSOLUTE
    _printf_ll                               0x00000000   Number         0  stubs.o ABSOLUTE
    _printf_lld                              0x00000000   Number         0  stubs.o ABSOLUTE
    _printf_lli                              0x00000000   Number         0  stubs.o ABSOLUTE
    _printf_llo                              0x00000000   Number         0  stubs.o ABSOLUTE
    _printf_llu                              0x00000000   Number         0  stubs.o ABSOLUTE
    _printf_llx                              0x00000000   Number         0  stubs.o ABSOLUTE
    _printf_longlong_dec                     0x00000000   Number         0  stubs.o ABSOLUTE
    _printf_longlong_hex                     0x00000000   Number         0  stubs.o ABSOLUTE
    _printf_longlong_oct                     0x00000000   Number         0  stubs.o ABSOLUTE
    _printf_ls                               0x00000000   Number         0  stubs.o ABSOLUTE
    _printf_mbtowc                           0x00000000   Number         0  stubs.o ABSOLUTE
    _printf_n                                0x00000000   Number         0  stubs.o ABSOLUTE
    _printf_o                                0x00000000   Number         0  stubs.o ABSOLUTE
    _printf_p                                0x00000000   Number         0  stubs.o ABSOLUTE
    _printf_percent                          0x00000000   Number         0  stubs.o ABSOLUTE
    _printf_pre_padding                      0x00000000   Number         0  stubs.o ABSOLUTE
    _printf_return_value                     0x00000000   Number         0  stubs.o ABSOLUTE
    _printf_s                                0x00000000   Number         0  stubs.o ABSOLUTE
    _printf_sizespec                         0x00000000   Number         0  stubs.o ABSOLUTE
    _printf_str                              0x00000000   Number         0  stubs.o ABSOLUTE
    _printf_truncate_signed                  0x00000000   Number         0  stubs.o ABSOLUTE
    _printf_truncate_unsigned                0x00000000   Number         0  stubs.o ABSOLUTE
    _printf_u                                0x00000000   Number         0  stubs.o ABSOLUTE
    _printf_wc                               0x00000000   Number         0  stubs.o ABSOLUTE
    _printf_wctomb                           0x00000000   Number         0  stubs.o ABSOLUTE
    _printf_widthprec                        0x00000000   Number         0  stubs.o ABSOLUTE
    _printf_x                                0x00000000   Number         0  stubs.o ABSOLUTE
    __cpp_initialize__aeabi_                  - Undefined Weak Reference
    __cxa_finalize                            - Undefined Weak Reference
    __decompress                              - Undefined Weak Reference
    _clock_init                               - Undefined Weak Reference
    _microlib_exit                            - Undefined Weak Reference
    __Vectors_Size                           0x00000130   Number         0  startup_stm32f103xe.o ABSOLUTE
    __Vectors                                0x08000000   Data           4  startup_stm32f103xe.o(RESET)
    __Vectors_End                            0x08000130   Data           0  startup_stm32f103xe.o(RESET)
    __main                                   0x08000131   Thumb Code     0  entry.o(.ARM.Collect$$$$00000000)
    _main_stk                                0x08000131   Thumb Code     0  entry2.o(.ARM.Collect$$$$00000001)
    _main_scatterload                        0x08000135   Thumb Code     0  entry5.o(.ARM.Collect$$$$00000004)
    __main_after_scatterload                 0x08000139   Thumb Code     0  entry5.o(.ARM.Collect$$$$00000004)
    _main_clock                              0x08000139   Thumb Code     0  entry7b.o(.ARM.Collect$$$$00000008)
    _main_cpp_init                           0x08000139   Thumb Code     0  entry8b.o(.ARM.Collect$$$$0000000A)
    _main_init                               0x08000139   Thumb Code     0  entry9a.o(.ARM.Collect$$$$0000000B)
    __rt_final_cpp                           0x08000141   Thumb Code     0  entry10a.o(.ARM.Collect$$$$0000000D)
    __rt_final_exit                          0x08000141   Thumb Code     0  entry11a.o(.ARM.Collect$$$$0000000F)
    Reset_Handler                            0x08000145   Thumb Code     8  startup_stm32f103xe.o(.text)
    ADC1_2_IRQHandler                        0x0800015f   Thumb Code     0  startup_stm32f103xe.o(.text)
    ADC3_IRQHandler                          0x0800015f   Thumb Code     0  startup_stm32f103xe.o(.text)
    CAN1_RX1_IRQHandler                      0x0800015f   Thumb Code     0  startup_stm32f103xe.o(.text)
    CAN1_SCE_IRQHandler                      0x0800015f   Thumb Code     0  startup_stm32f103xe.o(.text)
    DMA1_Channel1_IRQHandler                 0x0800015f   Thumb Code     0  startup_stm32f103xe.o(.text)
    DMA1_Channel2_IRQHandler                 0x0800015f   Thumb Code     0  startup_stm32f103xe.o(.text)
    DMA1_Channel3_IRQHandler                 0x0800015f   Thumb Code     0  startup_stm32f103xe.o(.text)
    DMA1_Channel4_IRQHandler                 0x0800015f   Thumb Code     0  startup_stm32f103xe.o(.text)
    DMA1_Channel5_IRQHandler                 0x0800015f   Thumb Code     0  startup_stm32f103xe.o(.text)
    DMA1_Channel6_IRQHandler                 0x0800015f   Thumb Code     0  startup_stm32f103xe.o(.text)
    DMA1_Channel7_IRQHandler                 0x0800015f   Thumb Code     0  startup_stm32f103xe.o(.text)
    DMA2_Channel1_IRQHandler                 0x0800015f   Thumb Code     0  startup_stm32f103xe.o(.text)
    DMA2_Channel2_IRQHandler                 0x0800015f   Thumb Code     0  startup_stm32f103xe.o(.text)
    DMA2_Channel3_IRQHandler                 0x0800015f   Thumb Code     0  startup_stm32f103xe.o(.text)
    DMA2_Channel4_5_IRQHandler               0x0800015f   Thumb Code     0  startup_stm32f103xe.o(.text)
    EXTI0_IRQHandler                         0x0800015f   Thumb Code     0  startup_stm32f103xe.o(.text)
    EXTI15_10_IRQHandler                     0x0800015f   Thumb Code     0  startup_stm32f103xe.o(.text)
    EXTI1_IRQHandler                         0x0800015f   Thumb Code     0  startup_stm32f103xe.o(.text)
    EXTI2_IRQHandler                         0x0800015f   Thumb Code     0  startup_stm32f103xe.o(.text)
    EXTI3_IRQHandler                         0x0800015f   Thumb Code     0  startup_stm32f103xe.o(.text)
    EXTI4_IRQHandler                         0x0800015f   Thumb Code     0  startup_stm32f103xe.o(.text)
    EXTI9_5_IRQHandler                       0x0800015f   Thumb Code     0  startup_stm32f103xe.o(.text)
    FLASH_IRQHandler                         0x0800015f   Thumb Code     0  startup_stm32f103xe.o(.text)
    FSMC_IRQHandler                          0x0800015f   Thumb Code     0  startup_stm32f103xe.o(.text)
    I2C1_ER_IRQHandler                       0x0800015f   Thumb Code     0  startup_stm32f103xe.o(.text)
    I2C1_EV_IRQHandler                       0x0800015f   Thumb Code     0  startup_stm32f103xe.o(.text)
    I2C2_ER_IRQHandler                       0x0800015f   Thumb Code     0  startup_stm32f103xe.o(.text)
    I2C2_EV_IRQHandler                       0x0800015f   Thumb Code     0  startup_stm32f103xe.o(.text)
    PVD_IRQHandler                           0x0800015f   Thumb Code     0  startup_stm32f103xe.o(.text)
    RCC_IRQHandler                           0x0800015f   Thumb Code     0  startup_stm32f103xe.o(.text)
    RTC_Alarm_IRQHandler                     0x0800015f   Thumb Code     0  startup_stm32f103xe.o(.text)
    RTC_IRQHandler                           0x0800015f   Thumb Code     0  startup_stm32f103xe.o(.text)
    SDIO_IRQHandler                          0x0800015f   Thumb Code     0  startup_stm32f103xe.o(.text)
    SPI1_IRQHandler                          0x0800015f   Thumb Code     0  startup_stm32f103xe.o(.text)
    SPI2_IRQHandler                          0x0800015f   Thumb Code     0  startup_stm32f103xe.o(.text)
    SPI3_IRQHandler                          0x0800015f   Thumb Code     0  startup_stm32f103xe.o(.text)
    TAMPER_IRQHandler                        0x0800015f   Thumb Code     0  startup_stm32f103xe.o(.text)
    TIM1_BRK_IRQHandler                      0x0800015f   Thumb Code     0  startup_stm32f103xe.o(.text)
    TIM1_CC_IRQHandler                       0x0800015f   Thumb Code     0  startup_stm32f103xe.o(.text)
    TIM1_TRG_COM_IRQHandler                  0x0800015f   Thumb Code     0  startup_stm32f103xe.o(.text)
    TIM1_UP_IRQHandler                       0x0800015f   Thumb Code     0  startup_stm32f103xe.o(.text)
    TIM2_IRQHandler                          0x0800015f   Thumb Code     0  startup_stm32f103xe.o(.text)
    TIM3_IRQHandler                          0x0800015f   Thumb Code     0  startup_stm32f103xe.o(.text)
    TIM4_IRQHandler                          0x0800015f   Thumb Code     0  startup_stm32f103xe.o(.text)
    TIM5_IRQHandler                          0x0800015f   Thumb Code     0  startup_stm32f103xe.o(.text)
    TIM6_IRQHandler                          0x0800015f   Thumb Code     0  startup_stm32f103xe.o(.text)
    TIM7_IRQHandler                          0x0800015f   Thumb Code     0  startup_stm32f103xe.o(.text)
    TIM8_BRK_IRQHandler                      0x0800015f   Thumb Code     0  startup_stm32f103xe.o(.text)
    TIM8_CC_IRQHandler                       0x0800015f   Thumb Code     0  startup_stm32f103xe.o(.text)
    TIM8_TRG_COM_IRQHandler                  0x0800015f   Thumb Code     0  startup_stm32f103xe.o(.text)
    TIM8_UP_IRQHandler                       0x0800015f   Thumb Code     0  startup_stm32f103xe.o(.text)
    UART4_IRQHandler                         0x0800015f   Thumb Code     0  startup_stm32f103xe.o(.text)
    UART5_IRQHandler                         0x0800015f   Thumb Code     0  startup_stm32f103xe.o(.text)
    USART1_IRQHandler                        0x0800015f   Thumb Code     0  startup_stm32f103xe.o(.text)
    USART2_IRQHandler                        0x0800015f   Thumb Code     0  startup_stm32f103xe.o(.text)
    USART3_IRQHandler                        0x0800015f   Thumb Code     0  startup_stm32f103xe.o(.text)
    USBWakeUp_IRQHandler                     0x0800015f   Thumb Code     0  startup_stm32f103xe.o(.text)
    USB_HP_CAN1_TX_IRQHandler                0x0800015f   Thumb Code     0  startup_stm32f103xe.o(.text)
    USB_LP_CAN1_RX0_IRQHandler               0x0800015f   Thumb Code     0  startup_stm32f103xe.o(.text)
    WWDG_IRQHandler                          0x0800015f   Thumb Code     0  startup_stm32f103xe.o(.text)
    __aeabi_llsr                             0x08000169   Thumb Code    32  llushr.o(.text)
    _ll_ushift_r                             0x08000169   Thumb Code     0  llushr.o(.text)
    __aeabi_memset                           0x08000189   Thumb Code    14  memseta.o(.text)
    __aeabi_memset4                          0x08000189   Thumb Code     0  memseta.o(.text)
    __aeabi_memset8                          0x08000189   Thumb Code     0  memseta.o(.text)
    __aeabi_memclr                           0x08000197   Thumb Code     4  memseta.o(.text)
    __aeabi_memclr4                          0x08000197   Thumb Code     0  memseta.o(.text)
    __aeabi_memclr8                          0x08000197   Thumb Code     0  memseta.o(.text)
    _memset$wrapper                          0x0800019b   Thumb Code    18  memseta.o(.text)
    __aeabi_dmul                             0x080001ad   Thumb Code   228  dmul.o(.text)
    __aeabi_ui2d                             0x08000291   Thumb Code    26  dfltui.o(.text)
    __aeabi_d2uiz                            0x080002ab   Thumb Code    50  dfixui.o(.text)
    __aeabi_uldivmod                         0x080002dd   Thumb Code    98  uldiv.o(.text)
    __I$use$fp                               0x0800033f   Thumb Code     0  iusefp.o(.text)
    _double_round                            0x0800033f   Thumb Code    30  depilogue.o(.text)
    _double_epilogue                         0x0800035d   Thumb Code   156  depilogue.o(.text)
    __scatterload                            0x080003f9   Thumb Code    28  init.o(.text)
    __scatterload_rt2                        0x080003f9   Thumb Code     0  init.o(.text)
    __aeabi_llsl                             0x0800041d   Thumb Code    30  llshl.o(.text)
    _ll_shift_l                              0x0800041d   Thumb Code     0  llshl.o(.text)
    BtSkin                                   0x0800043b   Thumb Code    14  cuigui_button.o(i.BtSkin)
    BtText                                   0x08000449   Thumb Code    84  cuigui_button.o(i.BtText)
    BusFault_Handler                         0x0800049d   Thumb Code     2  stm32f1xx_it.o(i.BusFault_Handler)
    CUIGUI_Color                             0x0800049f   Thumb Code    16  cuigui_color.o(i.CUIGUI_Color)
    CUIGUI_DrawHLine                         0x080004b1   Thumb Code    32  cuigui_lcddriver.o(i.CUIGUI_DrawHLine)
    CUIGUI_DrawPoint                         0x080004d5   Thumb Code     4  cuigui_lcddriver.o(i.CUIGUI_DrawPoint)
    CUIGUI_DrawStr                           0x080004d9   Thumb Code    52  gui.o(i.CUIGUI_DrawStr)
    CUIGUI_DrawVLine                         0x0800050d   Thumb Code    36  cuigui_lcddriver.o(i.CUIGUI_DrawVLine)
    CUIGUI_DrawWord                          0x08000531   Thumb Code    92  gui.o(i.CUIGUI_DrawWord)
    CUIGUI_FillRect                          0x08000591   Thumb Code    68  cuigui_lcddriver.o(i.CUIGUI_FillRect)
    CUIGUI_GetFont                           0x080005d9   Thumb Code     6  gui.o(i.CUIGUI_GetFont)
    CUIGUI_Init                              0x080005e5   Thumb Code    18  cuigui_lcddriver.o(i.CUIGUI_Init)
    CUIGUI_SetFont                           0x080005f9   Thumb Code     6  gui.o(i.CUIGUI_SetFont)
    DebugMon_Handler                         0x08000605   Thumb Code     2  stm32f1xx_it.o(i.DebugMon_Handler)
    DefaultDrawButton                        0x08000607   Thumb Code    18  cuigui_button.o(i.DefaultDrawButton)
    FSMC_NORSRAM_Extended_Timing_Init        0x08000619   Thumb Code    56  stm32f1xx_ll_fsmc.o(i.FSMC_NORSRAM_Extended_Timing_Init)
    FSMC_NORSRAM_Init                        0x08000655   Thumb Code   148  stm32f1xx_ll_fsmc.o(i.FSMC_NORSRAM_Init)
    FSMC_NORSRAM_Timing_Init                 0x080006ed   Thumb Code    64  stm32f1xx_ll_fsmc.o(i.FSMC_NORSRAM_Timing_Init)
    GBK2UNICODE                              0x08000731   Thumb Code    40  gui.o(i.GBK2UNICODE)
    GetLengthStr                             0x0800075d   Thumb Code    40  gui.o(i.GetLengthStr)
    GetUnicode                               0x08000785   Thumb Code     4  gui.o(i.GetUnicode)
    GetWordWidth                             0x08000789   Thumb Code    60  gui.o(i.GetWordWidth)
    GetXORColor                              0x080007c9   Thumb Code     8  cuigui_lcddriver.o(i.GetXORColor)
    HAL_Delay                                0x080007d1   Thumb Code    32  stm32f1xx_hal.o(i.HAL_Delay)
    HAL_GPIO_Init                            0x08000869   Thumb Code   446  stm32f1xx_hal_gpio.o(i.HAL_GPIO_Init)
    HAL_GPIO_WritePin                        0x08000a51   Thumb Code    10  stm32f1xx_hal_gpio.o(i.HAL_GPIO_WritePin)
    HAL_GetTick                              0x08000a5d   Thumb Code     6  stm32f1xx_hal.o(i.HAL_GetTick)
    HAL_IncTick                              0x08000a69   Thumb Code    12  stm32f1xx_hal.o(i.HAL_IncTick)
    HAL_Init                                 0x08000a79   Thumb Code    32  stm32f1xx_hal.o(i.HAL_Init)
    HAL_InitTick                             0x08000a9d   Thumb Code    54  stm32f1xx_hal.o(i.HAL_InitTick)
    HAL_MspInit                              0x08000add   Thumb Code   134  stm32f1xx_hal_msp.o(i.HAL_MspInit)
    HAL_NVIC_SetPriority                     0x08000b6d   Thumb Code    60  stm32f1xx_hal_cortex.o(i.HAL_NVIC_SetPriority)
    HAL_NVIC_SetPriorityGrouping             0x08000bad   Thumb Code    26  stm32f1xx_hal_cortex.o(i.HAL_NVIC_SetPriorityGrouping)
    HAL_RCC_ClockConfig                      0x08000bd1   Thumb Code   322  stm32f1xx_hal_rcc.o(i.HAL_RCC_ClockConfig)
    HAL_RCC_GetHCLKFreq                      0x08000d25   Thumb Code     6  stm32f1xx_hal_rcc.o(i.HAL_RCC_GetHCLKFreq)
    HAL_RCC_GetPCLK1Freq                     0x08000d31   Thumb Code    20  stm32f1xx_hal_rcc.o(i.HAL_RCC_GetPCLK1Freq)
    HAL_RCC_GetPCLK2Freq                     0x08000d51   Thumb Code    20  stm32f1xx_hal_rcc.o(i.HAL_RCC_GetPCLK2Freq)
    HAL_RCC_GetSysClockFreq                  0x08000d71   Thumb Code    74  stm32f1xx_hal_rcc.o(i.HAL_RCC_GetSysClockFreq)
    HAL_RCC_OscConfig                        0x08000ddd   Thumb Code   750  stm32f1xx_hal_rcc.o(i.HAL_RCC_OscConfig)
    HAL_SD_ConfigWideBusOperation            0x080010e1   Thumb Code   120  stm32f1xx_hal_sd.o(i.HAL_SD_ConfigWideBusOperation)
    HAL_SD_GetCardCID                        0x08001159   Thumb Code   178  stm32f1xx_hal_sd.o(i.HAL_SD_GetCardCID)
    HAL_SD_GetCardCSD                        0x0800120b   Thumb Code   474  stm32f1xx_hal_sd.o(i.HAL_SD_GetCardCSD)
    HAL_SD_GetCardState                      0x080013e5   Thumb Code    44  stm32f1xx_hal_sd.o(i.HAL_SD_GetCardState)
    HAL_SD_Init                              0x08001411   Thumb Code    54  stm32f1xx_hal_sd.o(i.HAL_SD_Init)
    HAL_SD_InitCard                          0x08001449   Thumb Code    80  stm32f1xx_hal_sd.o(i.HAL_SD_InitCard)
    HAL_SD_MspInit                           0x0800149d   Thumb Code    72  sdio.o(i.HAL_SD_MspInit)
    HAL_SD_ReadBlocks                        0x080014f5   Thumb Code   434  stm32f1xx_hal_sd.o(i.HAL_SD_ReadBlocks)
    HAL_SD_WriteBlocks                       0x080016a9   Thumb Code   410  stm32f1xx_hal_sd.o(i.HAL_SD_WriteBlocks)
    HAL_SRAM_Init                            0x08001843   Thumb Code    86  stm32f1xx_hal_sram.o(i.HAL_SRAM_Init)
    HAL_SRAM_MspInit                         0x08001899   Thumb Code     4  fsmc.o(i.HAL_SRAM_MspInit)
    HAL_SYSTICK_CLKSourceConfig              0x0800189d   Thumb Code    24  stm32f1xx_hal_cortex.o(i.HAL_SYSTICK_CLKSourceConfig)
    HAL_SYSTICK_Callback                     0x080018b5   Thumb Code     2  stm32f1xx_hal_cortex.o(i.HAL_SYSTICK_Callback)
    HAL_SYSTICK_Config                       0x080018b7   Thumb Code    40  stm32f1xx_hal_cortex.o(i.HAL_SYSTICK_Config)
    HAL_SYSTICK_IRQHandler                   0x080018df   Thumb Code     8  stm32f1xx_hal_cortex.o(i.HAL_SYSTICK_IRQHandler)
    HAL_UART_Init                            0x080018e7   Thumb Code    98  stm32f1xx_hal_uart.o(i.HAL_UART_Init)
    HAL_UART_MspInit                         0x08001949   Thumb Code    76  usart.o(i.HAL_UART_MspInit)
    HAL_UART_Transmit                        0x080019a1   Thumb Code   186  stm32f1xx_hal_uart.o(i.HAL_UART_Transmit)
    HardFault_Handler                        0x08001a5b   Thumb Code     2  stm32f1xx_it.o(i.HardFault_Handler)
    LCD_Clear                                0x08001a5d   Thumb Code    98  lcd.o(i.LCD_Clear)
    LCD_Display_Dir                          0x08001ac9   Thumb Code   304  lcd.o(i.LCD_Display_Dir)
    LCD_Fast_DrawPoint                       0x08001bfd   Thumb Code   262  lcd.o(i.LCD_Fast_DrawPoint)
    LCD_Init                                 0x08001d0d   Thumb Code 11520  lcd.o(i.LCD_Init)
    LCD_ReadReg                              0x08004a11   Thumb Code    10  lcd.o(i.LCD_ReadReg)
    LCD_SSD_BackLightSet                     0x08004a21   Thumb Code    50  lcd.o(i.LCD_SSD_BackLightSet)
    LCD_Scan_Dir                             0x08004a5d   Thumb Code   414  lcd.o(i.LCD_Scan_Dir)
    LCD_SetCursor                            0x08004c05   Thumb Code   310  lcd.o(i.LCD_SetCursor)
    LCD_WriteRAM_Prepare                     0x08004d45   Thumb Code    10  lcd.o(i.LCD_WriteRAM_Prepare)
    LCD_WriteReg                             0x08004d59   Thumb Code    10  lcd.o(i.LCD_WriteReg)
    List4_InsertBlock                        0x08004d69   Thumb Code    84  list4_malloc.o(i.List4_InsertBlock)
    List4_Malloc                             0x08004dbd   Thumb Code   122  list4_malloc.o(i.List4_Malloc)
    List4_Malloc_Init                        0x08004e65   Thumb Code    52  list4_malloc.o(i.List4_Malloc_Init)
    MX_FSMC_Init                             0x08004ef1   Thumb Code   122  fsmc.o(i.MX_FSMC_Init)
    MX_GPIO_Init                             0x08004f89   Thumb Code   138  gpio.o(i.MX_GPIO_Init)
    MX_SDIO_SD_Init                          0x0800501d   Thumb Code    66  sdio.o(i.MX_SDIO_SD_Init)
    MX_USART1_UART_Init                      0x08005079   Thumb Code    52  usart.o(i.MX_USART1_UART_Init)
    MemManage_Handler                        0x080050c5   Thumb Code     2  stm32f1xx_it.o(i.MemManage_Handler)
    NMI_Handler                              0x080050c7   Thumb Code     2  stm32f1xx_it.o(i.NMI_Handler)
    NewButton                                0x080050e9   Thumb Code    58  cuigui_button.o(i.NewButton)
    Obj_SkinPressed                          0x0800512d   Thumb Code   310  cuigui_button.o(i.Obj_SkinPressed)
    Obj_SkinUnPressed                        0x08005263   Thumb Code   310  cuigui_button.o(i.Obj_SkinUnPressed)
    PendSV_Handler                           0x08005399   Thumb Code     2  stm32f1xx_it.o(i.PendSV_Handler)
    SDIO_ConfigData                          0x0800539b   Thumb Code    36  stm32f1xx_ll_sdmmc.o(i.SDIO_ConfigData)
    SDIO_GetPowerState                       0x080053bf   Thumb Code     8  stm32f1xx_ll_sdmmc.o(i.SDIO_GetPowerState)
    SDIO_GetResponse                         0x080053c7   Thumb Code    12  stm32f1xx_ll_sdmmc.o(i.SDIO_GetResponse)
    SDIO_Init                                0x080053d3   Thumb Code    36  stm32f1xx_ll_sdmmc.o(i.SDIO_Init)
    SDIO_PowerState_ON                       0x080053f7   Thumb Code     8  stm32f1xx_ll_sdmmc.o(i.SDIO_PowerState_ON)
    SDIO_ReadFIFO                            0x080053ff   Thumb Code     6  stm32f1xx_ll_sdmmc.o(i.SDIO_ReadFIFO)
    SDIO_SendCommand                         0x08005405   Thumb Code    32  stm32f1xx_ll_sdmmc.o(i.SDIO_SendCommand)
    SDIO_WriteFIFO                           0x08005425   Thumb Code    10  stm32f1xx_ll_sdmmc.o(i.SDIO_WriteFIFO)
    SDMMC_CmdAppCommand                      0x0800542f   Thumb Code    50  stm32f1xx_ll_sdmmc.o(i.SDMMC_CmdAppCommand)
    SDMMC_CmdAppOperCommand                  0x08005461   Thumb Code    48  stm32f1xx_ll_sdmmc.o(i.SDMMC_CmdAppOperCommand)
    SDMMC_CmdBlockLength                     0x08005495   Thumb Code    50  stm32f1xx_ll_sdmmc.o(i.SDMMC_CmdBlockLength)
    SDMMC_CmdBusWidth                        0x080054c7   Thumb Code    50  stm32f1xx_ll_sdmmc.o(i.SDMMC_CmdBusWidth)
    SDMMC_CmdGoIdleState                     0x080054f9   Thumb Code    76  stm32f1xx_ll_sdmmc.o(i.SDMMC_CmdGoIdleState)
    SDMMC_CmdOperCond                        0x08005549   Thumb Code    98  stm32f1xx_ll_sdmmc.o(i.SDMMC_CmdOperCond)
    SDMMC_CmdReadMultiBlock                  0x080055b1   Thumb Code    50  stm32f1xx_ll_sdmmc.o(i.SDMMC_CmdReadMultiBlock)
    SDMMC_CmdReadSingleBlock                 0x080055e3   Thumb Code    50  stm32f1xx_ll_sdmmc.o(i.SDMMC_CmdReadSingleBlock)
    SDMMC_CmdSelDesel                        0x08005615   Thumb Code    50  stm32f1xx_ll_sdmmc.o(i.SDMMC_CmdSelDesel)
    SDMMC_CmdSendCID                         0x08005647   Thumb Code    44  stm32f1xx_ll_sdmmc.o(i.SDMMC_CmdSendCID)
    SDMMC_CmdSendCSD                         0x08005673   Thumb Code    44  stm32f1xx_ll_sdmmc.o(i.SDMMC_CmdSendCSD)
    SDMMC_CmdSendSCR                         0x0800569f   Thumb Code    48  stm32f1xx_ll_sdmmc.o(i.SDMMC_CmdSendSCR)
    SDMMC_CmdSendStatus                      0x080056cf   Thumb Code    50  stm32f1xx_ll_sdmmc.o(i.SDMMC_CmdSendStatus)
    SDMMC_CmdSetRelAdd                       0x08005701   Thumb Code    48  stm32f1xx_ll_sdmmc.o(i.SDMMC_CmdSetRelAdd)
    SDMMC_CmdStopTransfer                    0x08005731   Thumb Code    46  stm32f1xx_ll_sdmmc.o(i.SDMMC_CmdStopTransfer)
    SDMMC_CmdWriteMultiBlock                 0x08005765   Thumb Code    50  stm32f1xx_ll_sdmmc.o(i.SDMMC_CmdWriteMultiBlock)
    SDMMC_CmdWriteSingleBlock                0x08005797   Thumb Code    50  stm32f1xx_ll_sdmmc.o(i.SDMMC_CmdWriteSingleBlock)
    SVC_Handler                              0x08005cf1   Thumb Code     2  stm32f1xx_it.o(i.SVC_Handler)
    SysTick_Handler                          0x08005cf3   Thumb Code    14  stm32f1xx_it.o(i.SysTick_Handler)
    SystemClock_Config                       0x08005d01   Thumb Code   112  main.o(i.SystemClock_Config)
    SystemInit                               0x08005d81   Thumb Code    56  system_stm32f1xx.o(i.SystemInit)
    UsageFault_Handler                       0x08005f9d   Thumb Code     2  stm32f1xx_it.o(i.UsageFault_Handler)
    _Error_Handler                           0x08005fa1   Thumb Code    10  main.o(i._Error_Handler)
    __0printf$5                              0x08005fc9   Thumb Code    22  printf5.o(i.__0printf$5)
    __1printf$5                              0x08005fc9   Thumb Code     0  printf5.o(i.__0printf$5)
    __2printf                                0x08005fc9   Thumb Code     0  printf5.o(i.__0printf$5)
    __scatterload_copy                       0x08005fe9   Thumb Code    14  handlers.o(i.__scatterload_copy)
    __scatterload_null                       0x08005ff7   Thumb Code     2  handlers.o(i.__scatterload_null)
    __scatterload_zeroinit                   0x08005ff9   Thumb Code    14  handlers.o(i.__scatterload_zeroinit)
    _draw_model                              0x08006007   Thumb Code   112  gui.o(i._draw_model)
    fputc                                    0x08006339   Thumb Code    20  usart.o(i.fputc)
    main                                     0x08006351   Thumb Code   222  main.o(i.main)
    AHBPrescTable                            0x080064ac   Data          16  system_stm32f1xx.o(.constdata)
    APBPrescTable                            0x080064bc   Data           8  system_stm32f1xx.o(.constdata)
    acGUI_Fontsongti24_6211                  0x080064c4   Data          72  songti24.o(.constdata)
    GUI_Fontsongti24_CharInfo                0x0800650c   Data           8  songti24.o(.constdata)
    GUI_Fontsongti24_Prop1                   0x08006514   Data          12  songti24.o(.constdata)
    GUI_Fontsongti24                         0x08006520   Data          16  songti24.o(.constdata)
    Region$$Table$$Base                      0x08006534   Number         0  anon$$obj.o(Region$$Table)
    Region$$Table$$Limit                     0x08006554   Number         0  anon$$obj.o(Region$$Table)
    uwTickFreq                               0x20000008   Data           1  stm32f1xx_hal.o(.data)
    uwTickPrio                               0x2000000c   Data           4  stm32f1xx_hal.o(.data)
    uwTick                                   0x20000010   Data           4  stm32f1xx_hal.o(.data)
    SystemCoreClock                          0x20000014   Data           4  system_stm32f1xx.o(.data)
    cuigui_Font                              0x20000018   Data           4  gui.o(.data)
    __stdout                                 0x2000001c   Data           4  stdout.o(.data)
    hsram1                                   0x20000020   Data          68  fsmc.o(.bss)
    hsd                                      0x20000064   Data         132  sdio.o(.bss)
    huart1                                   0x200000e8   Data          64  usart.o(.bss)
    lcddev                                   0x20000128   Data          14  lcd.o(.bss)
    list4mess                                0x20000138   Data          16  list4_malloc.o(.bss)
    list4mallocArray                         0x20000148   Data       51200  list4_malloc.o(.bss)
    __initial_sp                             0x2000cd48   Data           0  startup_stm32f103xe.o(STACK)



==============================================================================

Memory Map of the image

  Image Entry point : 0x08000131

  Load Region LR_IROM1 (Base: 0x08000000, Size: 0x00006574, Max: 0x00080000, ABSOLUTE)

    Execution Region ER_IROM1 (Exec base: 0x08000000, Load base: 0x08000000, Size: 0x00006554, Max: 0x00080000, ABSOLUTE)

    Exec Addr    Load Addr    Size         Type   Attr      Idx    E Section Name        Object

    0x08000000   0x08000000   0x00000130   Data   RO            3    RESET               startup_stm32f103xe.o
    0x08000130   0x08000130   0x00000000   Code   RO         3458  * .ARM.Collect$$$$00000000  mc_w.l(entry.o)
    0x08000130   0x08000130   0x00000004   Code   RO         3750    .ARM.Collect$$$$00000001  mc_w.l(entry2.o)
    0x08000134   0x08000134   0x00000004   Code   RO         3753    .ARM.Collect$$$$00000004  mc_w.l(entry5.o)
    0x08000138   0x08000138   0x00000000   Code   RO         3755    .ARM.Collect$$$$00000008  mc_w.l(entry7b.o)
    0x08000138   0x08000138   0x00000000   Code   RO         3757    .ARM.Collect$$$$0000000A  mc_w.l(entry8b.o)
    0x08000138   0x08000138   0x00000008   Code   RO         3758    .ARM.Collect$$$$0000000B  mc_w.l(entry9a.o)
    0x08000140   0x08000140   0x00000000   Code   RO         3760    .ARM.Collect$$$$0000000D  mc_w.l(entry10a.o)
    0x08000140   0x08000140   0x00000000   Code   RO         3762    .ARM.Collect$$$$0000000F  mc_w.l(entry11a.o)
    0x08000140   0x08000140   0x00000004   Code   RO         3751    .ARM.Collect$$$$00002712  mc_w.l(entry2.o)
    0x08000144   0x08000144   0x00000024   Code   RO            4    .text               startup_stm32f103xe.o
    0x08000168   0x08000168   0x00000020   Code   RO         3461    .text               mc_w.l(llushr.o)
    0x08000188   0x08000188   0x00000024   Code   RO         3463    .text               mc_w.l(memseta.o)
    0x080001ac   0x080001ac   0x000000e4   Code   RO         3730    .text               mf_w.l(dmul.o)
    0x08000290   0x08000290   0x0000001a   Code   RO         3736    .text               mf_w.l(dfltui.o)
    0x080002aa   0x080002aa   0x00000032   Code   RO         3740    .text               mf_w.l(dfixui.o)
    0x080002dc   0x080002dc   0x00000062   Code   RO         3767    .text               mc_w.l(uldiv.o)
    0x0800033e   0x0800033e   0x00000000   Code   RO         3769    .text               mc_w.l(iusefp.o)
    0x0800033e   0x0800033e   0x000000ba   Code   RO         3772    .text               mf_w.l(depilogue.o)
    0x080003f8   0x080003f8   0x00000024   Code   RO         3780    .text               mc_w.l(init.o)
    0x0800041c   0x0800041c   0x0000001e   Code   RO         3782    .text               mc_w.l(llshl.o)
    0x0800043a   0x0800043a   0x0000000e   Code   RO         3211    i.BtSkin            cuigui_button.o
    0x08000448   0x08000448   0x00000054   Code   RO         3212    i.BtText            cuigui_button.o
    0x0800049c   0x0800049c   0x00000002   Code   RO          337    i.BusFault_Handler  stm32f1xx_it.o
    0x0800049e   0x0800049e   0x00000010   Code   RO         3167    i.CUIGUI_Color      cuigui_color.o
    0x080004ae   0x080004ae   0x00000002   PAD
    0x080004b0   0x080004b0   0x00000024   Code   RO         3058    i.CUIGUI_DrawHLine  cuigui_lcddriver.o
    0x080004d4   0x080004d4   0x00000004   Code   RO         3060    i.CUIGUI_DrawPoint  cuigui_lcddriver.o
    0x080004d8   0x080004d8   0x00000034   Code   RO         3288    i.CUIGUI_DrawStr    gui.o
    0x0800050c   0x0800050c   0x00000024   Code   RO         3061    i.CUIGUI_DrawVLine  cuigui_lcddriver.o
    0x08000530   0x08000530   0x00000060   Code   RO         3289    i.CUIGUI_DrawWord   gui.o
    0x08000590   0x08000590   0x00000048   Code   RO         3066    i.CUIGUI_FillRect   cuigui_lcddriver.o
    0x080005d8   0x080005d8   0x0000000c   Code   RO         3290    i.CUIGUI_GetFont    gui.o
    0x080005e4   0x080005e4   0x00000012   Code   RO         3067    i.CUIGUI_Init       cuigui_lcddriver.o
    0x080005f6   0x080005f6   0x00000002   PAD
    0x080005f8   0x080005f8   0x0000000c   Code   RO         3293    i.CUIGUI_SetFont    gui.o
    0x08000604   0x08000604   0x00000002   Code   RO          338    i.DebugMon_Handler  stm32f1xx_it.o
    0x08000606   0x08000606   0x00000012   Code   RO         3215    i.DefaultDrawButton  cuigui_button.o
    0x08000618   0x08000618   0x0000003c   Code   RO          480    i.FSMC_NORSRAM_Extended_Timing_Init  stm32f1xx_ll_fsmc.o
    0x08000654   0x08000654   0x00000098   Code   RO          481    i.FSMC_NORSRAM_Init  stm32f1xx_ll_fsmc.o
    0x080006ec   0x080006ec   0x00000044   Code   RO          482    i.FSMC_NORSRAM_Timing_Init  stm32f1xx_ll_fsmc.o
    0x08000730   0x08000730   0x0000002c   Code   RO         3296    i.GBK2UNICODE       gui.o
    0x0800075c   0x0800075c   0x00000028   Code   RO         3298    i.GetLengthStr      gui.o
    0x08000784   0x08000784   0x00000004   Code   RO         3301    i.GetUnicode        gui.o
    0x08000788   0x08000788   0x00000040   Code   RO         3302    i.GetWordWidth      gui.o
    0x080007c8   0x080007c8   0x00000008   Code   RO         3072    i.GetXORColor       cuigui_lcddriver.o
    0x080007d0   0x080007d0   0x00000024   Code   RO         1586    i.HAL_Delay         stm32f1xx_hal.o
    0x080007f4   0x080007f4   0x00000074   Code   RO          199    i.HAL_FSMC_MspInit  fsmc.o
    0x08000868   0x08000868   0x000001e8   Code   RO         1879    i.HAL_GPIO_Init     stm32f1xx_hal_gpio.o
    0x08000a50   0x08000a50   0x0000000a   Code   RO         1883    i.HAL_GPIO_WritePin  stm32f1xx_hal_gpio.o
    0x08000a5a   0x08000a5a   0x00000002   PAD
    0x08000a5c   0x08000a5c   0x0000000c   Code   RO         1590    i.HAL_GetTick       stm32f1xx_hal.o
    0x08000a68   0x08000a68   0x00000010   Code   RO         1594    i.HAL_IncTick       stm32f1xx_hal.o
    0x08000a78   0x08000a78   0x00000024   Code   RO         1595    i.HAL_Init          stm32f1xx_hal.o
    0x08000a9c   0x08000a9c   0x00000040   Code   RO         1596    i.HAL_InitTick      stm32f1xx_hal.o
    0x08000adc   0x08000adc   0x00000090   Code   RO          412    i.HAL_MspInit       stm32f1xx_hal_msp.o
    0x08000b6c   0x08000b6c   0x00000040   Code   RO         2045    i.HAL_NVIC_SetPriority  stm32f1xx_hal_cortex.o
    0x08000bac   0x08000bac   0x00000024   Code   RO         2046    i.HAL_NVIC_SetPriorityGrouping  stm32f1xx_hal_cortex.o
    0x08000bd0   0x08000bd0   0x00000154   Code   RO         1739    i.HAL_RCC_ClockConfig  stm32f1xx_hal_rcc.o
    0x08000d24   0x08000d24   0x0000000c   Code   RO         1744    i.HAL_RCC_GetHCLKFreq  stm32f1xx_hal_rcc.o
    0x08000d30   0x08000d30   0x00000020   Code   RO         1746    i.HAL_RCC_GetPCLK1Freq  stm32f1xx_hal_rcc.o
    0x08000d50   0x08000d50   0x00000020   Code   RO         1747    i.HAL_RCC_GetPCLK2Freq  stm32f1xx_hal_rcc.o
    0x08000d70   0x08000d70   0x0000006c   Code   RO         1748    i.HAL_RCC_GetSysClockFreq  stm32f1xx_hal_rcc.o
    0x08000ddc   0x08000ddc   0x00000304   Code   RO         1751    i.HAL_RCC_OscConfig  stm32f1xx_hal_rcc.o
    0x080010e0   0x080010e0   0x00000078   Code   RO          985    i.HAL_SD_ConfigWideBusOperation  stm32f1xx_hal_sd.o
    0x08001158   0x08001158   0x000000b2   Code   RO          989    i.HAL_SD_GetCardCID  stm32f1xx_hal_sd.o
    0x0800120a   0x0800120a   0x000001da   Code   RO          990    i.HAL_SD_GetCardCSD  stm32f1xx_hal_sd.o
    0x080013e4   0x080013e4   0x0000002c   Code   RO          992    i.HAL_SD_GetCardState  stm32f1xx_hal_sd.o
    0x08001410   0x08001410   0x00000036   Code   RO          997    i.HAL_SD_Init       stm32f1xx_hal_sd.o
    0x08001446   0x08001446   0x00000002   PAD
    0x08001448   0x08001448   0x00000054   Code   RO          998    i.HAL_SD_InitCard   stm32f1xx_hal_sd.o
    0x0800149c   0x0800149c   0x00000058   Code   RO          248    i.HAL_SD_MspInit    sdio.o
    0x080014f4   0x080014f4   0x000001b2   Code   RO         1001    i.HAL_SD_ReadBlocks  stm32f1xx_hal_sd.o
    0x080016a6   0x080016a6   0x00000002   PAD
    0x080016a8   0x080016a8   0x0000019a   Code   RO         1006    i.HAL_SD_WriteBlocks  stm32f1xx_hal_sd.o
    0x08001842   0x08001842   0x00000056   Code   RO          602    i.HAL_SRAM_Init     stm32f1xx_hal_sram.o
    0x08001898   0x08001898   0x00000004   Code   RO          201    i.HAL_SRAM_MspInit  fsmc.o
    0x0800189c   0x0800189c   0x00000018   Code   RO         2048    i.HAL_SYSTICK_CLKSourceConfig  stm32f1xx_hal_cortex.o
    0x080018b4   0x080018b4   0x00000002   Code   RO         2049    i.HAL_SYSTICK_Callback  stm32f1xx_hal_cortex.o
    0x080018b6   0x080018b6   0x00000028   Code   RO         2050    i.HAL_SYSTICK_Config  stm32f1xx_hal_cortex.o
    0x080018de   0x080018de   0x00000008   Code   RO         2051    i.HAL_SYSTICK_IRQHandler  stm32f1xx_hal_cortex.o
    0x080018e6   0x080018e6   0x00000062   Code   RO         1278    i.HAL_UART_Init     stm32f1xx_hal_uart.o
    0x08001948   0x08001948   0x00000058   Code   RO          290    i.HAL_UART_MspInit  usart.o
    0x080019a0   0x080019a0   0x000000ba   Code   RO         1286    i.HAL_UART_Transmit  stm32f1xx_hal_uart.o
    0x08001a5a   0x08001a5a   0x00000002   Code   RO          339    i.HardFault_Handler  stm32f1xx_it.o
    0x08001a5c   0x08001a5c   0x0000006c   Code   RO         2506    i.LCD_Clear         lcd.o
    0x08001ac8   0x08001ac8   0x00000134   Code   RO         2510    i.LCD_Display_Dir   lcd.o
    0x08001bfc   0x08001bfc   0x00000110   Code   RO         2515    i.LCD_Fast_DrawPoint  lcd.o
    0x08001d0c   0x08001d0c   0x00002d04   Code   RO         2517    i.LCD_Init          lcd.o
    0x08004a10   0x08004a10   0x00000010   Code   RO         2521    i.LCD_ReadReg       lcd.o
    0x08004a20   0x08004a20   0x0000003c   Code   RO         2522    i.LCD_SSD_BackLightSet  lcd.o
    0x08004a5c   0x08004a5c   0x000001a8   Code   RO         2523    i.LCD_Scan_Dir      lcd.o
    0x08004c04   0x08004c04   0x00000140   Code   RO         2524    i.LCD_SetCursor     lcd.o
    0x08004d44   0x08004d44   0x00000014   Code   RO         2529    i.LCD_WriteRAM_Prepare  lcd.o
    0x08004d58   0x08004d58   0x00000010   Code   RO         2530    i.LCD_WriteReg      lcd.o
    0x08004d68   0x08004d68   0x00000054   Code   RO         2686    i.List4_InsertBlock  list4_malloc.o
    0x08004dbc   0x08004dbc   0x000000a8   Code   RO         2687    i.List4_Malloc      list4_malloc.o
    0x08004e64   0x08004e64   0x0000008c   Code   RO         2688    i.List4_Malloc_Init  list4_malloc.o
    0x08004ef0   0x08004ef0   0x00000098   Code   RO          202    i.MX_FSMC_Init      fsmc.o
    0x08004f88   0x08004f88   0x00000094   Code   RO          175    i.MX_GPIO_Init      gpio.o
    0x0800501c   0x0800501c   0x0000005c   Code   RO          249    i.MX_SDIO_SD_Init   sdio.o
    0x08005078   0x08005078   0x0000004c   Code   RO          291    i.MX_USART1_UART_Init  usart.o
    0x080050c4   0x080050c4   0x00000002   Code   RO          340    i.MemManage_Handler  stm32f1xx_it.o
    0x080050c6   0x080050c6   0x00000002   Code   RO          341    i.NMI_Handler       stm32f1xx_it.o
    0x080050c8   0x080050c8   0x00000020   Code   RO         2052    i.NVIC_SetPriority  stm32f1xx_hal_cortex.o
    0x080050e8   0x080050e8   0x00000044   Code   RO         3216    i.NewButton         cuigui_button.o
    0x0800512c   0x0800512c   0x00000136   Code   RO         3217    i.Obj_SkinPressed   cuigui_button.o
    0x08005262   0x08005262   0x00000136   Code   RO         3218    i.Obj_SkinUnPressed  cuigui_button.o
    0x08005398   0x08005398   0x00000002   Code   RO          342    i.PendSV_Handler    stm32f1xx_it.o
    0x0800539a   0x0800539a   0x00000024   Code   RO          718    i.SDIO_ConfigData   stm32f1xx_ll_sdmmc.o
    0x080053be   0x080053be   0x00000008   Code   RO          722    i.SDIO_GetPowerState  stm32f1xx_ll_sdmmc.o
    0x080053c6   0x080053c6   0x0000000c   Code   RO          723    i.SDIO_GetResponse  stm32f1xx_ll_sdmmc.o
    0x080053d2   0x080053d2   0x00000024   Code   RO          724    i.SDIO_Init         stm32f1xx_ll_sdmmc.o
    0x080053f6   0x080053f6   0x00000008   Code   RO          726    i.SDIO_PowerState_ON  stm32f1xx_ll_sdmmc.o
    0x080053fe   0x080053fe   0x00000006   Code   RO          727    i.SDIO_ReadFIFO     stm32f1xx_ll_sdmmc.o
    0x08005404   0x08005404   0x00000020   Code   RO          728    i.SDIO_SendCommand  stm32f1xx_ll_sdmmc.o
    0x08005424   0x08005424   0x0000000a   Code   RO          730    i.SDIO_WriteFIFO    stm32f1xx_ll_sdmmc.o
    0x0800542e   0x0800542e   0x00000032   Code   RO          731    i.SDMMC_CmdAppCommand  stm32f1xx_ll_sdmmc.o
    0x08005460   0x08005460   0x00000034   Code   RO          732    i.SDMMC_CmdAppOperCommand  stm32f1xx_ll_sdmmc.o
    0x08005494   0x08005494   0x00000032   Code   RO          733    i.SDMMC_CmdBlockLength  stm32f1xx_ll_sdmmc.o
    0x080054c6   0x080054c6   0x00000032   Code   RO          734    i.SDMMC_CmdBusWidth  stm32f1xx_ll_sdmmc.o
    0x080054f8   0x080054f8   0x00000050   Code   RO          738    i.SDMMC_CmdGoIdleState  stm32f1xx_ll_sdmmc.o
    0x08005548   0x08005548   0x00000068   Code   RO          740    i.SDMMC_CmdOperCond  stm32f1xx_ll_sdmmc.o
    0x080055b0   0x080055b0   0x00000032   Code   RO          741    i.SDMMC_CmdReadMultiBlock  stm32f1xx_ll_sdmmc.o
    0x080055e2   0x080055e2   0x00000032   Code   RO          742    i.SDMMC_CmdReadSingleBlock  stm32f1xx_ll_sdmmc.o
    0x08005614   0x08005614   0x00000032   Code   RO          745    i.SDMMC_CmdSelDesel  stm32f1xx_ll_sdmmc.o
    0x08005646   0x08005646   0x0000002c   Code   RO          746    i.SDMMC_CmdSendCID  stm32f1xx_ll_sdmmc.o
    0x08005672   0x08005672   0x0000002c   Code   RO          747    i.SDMMC_CmdSendCSD  stm32f1xx_ll_sdmmc.o
    0x0800569e   0x0800569e   0x00000030   Code   RO          748    i.SDMMC_CmdSendSCR  stm32f1xx_ll_sdmmc.o
    0x080056ce   0x080056ce   0x00000032   Code   RO          749    i.SDMMC_CmdSendStatus  stm32f1xx_ll_sdmmc.o
    0x08005700   0x08005700   0x00000030   Code   RO          750    i.SDMMC_CmdSetRelAdd  stm32f1xx_ll_sdmmc.o
    0x08005730   0x08005730   0x00000034   Code   RO          752    i.SDMMC_CmdStopTransfer  stm32f1xx_ll_sdmmc.o
    0x08005764   0x08005764   0x00000032   Code   RO          754    i.SDMMC_CmdWriteMultiBlock  stm32f1xx_ll_sdmmc.o
    0x08005796   0x08005796   0x00000032   Code   RO          755    i.SDMMC_CmdWriteSingleBlock  stm32f1xx_ll_sdmmc.o
    0x080057c8   0x080057c8   0x0000011c   Code   RO          756    i.SDMMC_GetCmdResp1  stm32f1xx_ll_sdmmc.o
    0x080058e4   0x080058e4   0x00000050   Code   RO          757    i.SDMMC_GetCmdResp2  stm32f1xx_ll_sdmmc.o
    0x08005934   0x08005934   0x00000040   Code   RO          758    i.SDMMC_GetCmdResp3  stm32f1xx_ll_sdmmc.o
    0x08005974   0x08005974   0x00000084   Code   RO          759    i.SDMMC_GetCmdResp6  stm32f1xx_ll_sdmmc.o
    0x080059f8   0x080059f8   0x000000d4   Code   RO         1014    i.SD_FindSCR        stm32f1xx_hal_sd.o
    0x08005acc   0x08005acc   0x000000e6   Code   RO         1015    i.SD_InitCard       stm32f1xx_hal_sd.o
    0x08005bb2   0x08005bb2   0x000000a2   Code   RO         1016    i.SD_PowerON        stm32f1xx_hal_sd.o
    0x08005c54   0x08005c54   0x0000004e   Code   RO         1018    i.SD_WideBus_Disable  stm32f1xx_hal_sd.o
    0x08005ca2   0x08005ca2   0x0000004e   Code   RO         1019    i.SD_WideBus_Enable  stm32f1xx_hal_sd.o
    0x08005cf0   0x08005cf0   0x00000002   Code   RO          343    i.SVC_Handler       stm32f1xx_it.o
    0x08005cf2   0x08005cf2   0x0000000e   Code   RO          344    i.SysTick_Handler   stm32f1xx_it.o
    0x08005d00   0x08005d00   0x00000080   Code   RO           13    i.SystemClock_Config  main.o
    0x08005d80   0x08005d80   0x00000048   Code   RO         2468    i.SystemInit        system_stm32f1xx.o
    0x08005dc8   0x08005dc8   0x00000170   Code   RO         1304    i.UART_SetConfig    stm32f1xx_hal_uart.o
    0x08005f38   0x08005f38   0x00000064   Code   RO         1306    i.UART_WaitOnFlagUntilTimeout  stm32f1xx_hal_uart.o
    0x08005f9c   0x08005f9c   0x00000002   Code   RO          345    i.UsageFault_Handler  stm32f1xx_it.o
    0x08005f9e   0x08005f9e   0x00000002   PAD
    0x08005fa0   0x08005fa0   0x00000028   Code   RO           14    i._Error_Handler    main.o
    0x08005fc8   0x08005fc8   0x00000020   Code   RO         3598    i.__0printf$5       mc_w.l(printf5.o)
    0x08005fe8   0x08005fe8   0x0000000e   Code   RO         3788    i.__scatterload_copy  mc_w.l(handlers.o)
    0x08005ff6   0x08005ff6   0x00000002   Code   RO         3789    i.__scatterload_null  mc_w.l(handlers.o)
    0x08005ff8   0x08005ff8   0x0000000e   Code   RO         3790    i.__scatterload_zeroinit  mc_w.l(handlers.o)
    0x08006006   0x08006006   0x00000070   Code   RO         3304    i._draw_model       gui.o
    0x08006076   0x08006076   0x00000002   PAD
    0x08006078   0x08006078   0x000002c0   Code   RO         3605    i._printf_core      mc_w.l(printf5.o)
    0x08006338   0x08006338   0x00000018   Code   RO          292    i.fputc             usart.o
    0x08006350   0x08006350   0x0000015c   Code   RO           15    i.main              main.o
    0x080064ac   0x080064ac   0x00000010   Data   RO         2469    .constdata          system_stm32f1xx.o
    0x080064bc   0x080064bc   0x00000008   Data   RO         2470    .constdata          system_stm32f1xx.o
    0x080064c4   0x080064c4   0x00000048   Data   RO         3030    .constdata          songti24.o
    0x0800650c   0x0800650c   0x00000008   Data   RO         3031    .constdata          songti24.o
    0x08006514   0x08006514   0x0000000c   Data   RO         3032    .constdata          songti24.o
    0x08006520   0x08006520   0x00000010   Data   RO         3033    .constdata          songti24.o
    0x08006530   0x08006530   0x00000004   Data   RO         3306    .constdata          gui.o
    0x08006534   0x08006534   0x00000020   Data   RO         3786    Region$$Table       anon$$obj.o


    Execution Region RW_IRAM1 (Exec base: 0x20000000, Load base: 0x08006554, Size: 0x0000cd48, Max: 0x00010000, ABSOLUTE)

    Exec Addr    Load Addr    Size         Type   Attr      Idx    E Section Name        Object

    0x20000000   0x08006554   0x00000008   Data   RW          204    .data               fsmc.o
    0x20000008   0x0800655c   0x0000000c   Data   RW         1602    .data               stm32f1xx_hal.o
    0x20000014   0x08006568   0x00000004   Data   RW         2471    .data               system_stm32f1xx.o
    0x20000018   0x0800656c   0x00000004   Data   RW         3307    .data               gui.o
    0x2000001c   0x08006570   0x00000004   Data   RW         3764    .data               mc_w.l(stdout.o)
    0x20000020        -       0x00000044   Zero   RW          203    .bss                fsmc.o
    0x20000064        -       0x00000084   Zero   RW          250    .bss                sdio.o
    0x200000e8        -       0x00000040   Zero   RW          293    .bss                usart.o
    0x20000128        -       0x0000000e   Zero   RW         2532    .bss                lcd.o
    0x20000136   0x08006574   0x00000002   PAD
    0x20000138        -       0x00000010   Zero   RW         2689    .bss                list4_malloc.o
    0x20000148        -       0x0000c800   Zero   RW         2690    .bss                list4_malloc.o
    0x2000c948        -       0x00000400   Zero   RW            1    STACK               startup_stm32f103xe.o


==============================================================================

Image component sizes


      Code (inc. data)   RO Data    RW Data    ZI Data      Debug   Object Name

       804         10          0          0          0       4164   cuigui_button.o
        16          0          0          0          0       2567   cuigui_color.o
       174          8          0          0          0       4211   cuigui_lcddriver.o
       272         50          0          8         68       2099   fsmc.o
       148         10          0          0          0        955   gpio.o
       436         24          4          4          0      11617   gui.o
     13068        128          0          0         14      47475   lcd.o
       392        134          0          0      51216       3504   list4_malloc.o
       516        172          0          0          0     496830   main.o
         0          0          0          0          0        852   microsoftyaheiascii24.o
       180         42          0          0        132       1521   sdio.o
         0          0        108          0          0       5988   songti24.o
        36          8        304          0       1024        784   startup_stm32f103xe.o
       164         28          0         12          0       3721   stm32f1xx_hal.o
       206         14          0          0          0      26612   stm32f1xx_hal_cortex.o
       498         42          0          0          0       2832   stm32f1xx_hal_gpio.o
       144         10          0          0          0        874   stm32f1xx_hal_msp.o
      1296        104          0          0          0       5516   stm32f1xx_hal_rcc.o
      2558          4          0          0          0      12555   stm32f1xx_hal_sd.o
        86          0          0          0          0       1156   stm32f1xx_hal_sram.o
       752          4          0          0          0       3824   stm32f1xx_hal_uart.o
        30          0          0          0          0       3666   stm32f1xx_it.o
       280         12          0          0          0       2495   stm32f1xx_ll_fsmc.o
      1630         42          0          0          0      21251   stm32f1xx_ll_sdmmc.o
        72         16         24          4          0       1103   system_stm32f1xx.o
       188         40          0          0         64       1990   usart.o

    ----------------------------------------------------------------------
     23960        902        472         28      52520     670162   Object Totals
         0          0         32          0          0          0   (incl. Generated)
        14          0          0          0          2          0   (incl. Padding)

    ----------------------------------------------------------------------

      Code (inc. data)   RO Data    RW Data    ZI Data      Debug   Library Member Name

         0          0          0          0          0          0   entry.o
         0          0          0          0          0          0   entry10a.o
         0          0          0          0          0          0   entry11a.o
         8          4          0          0          0          0   entry2.o
         4          0          0          0          0          0   entry5.o
         0          0          0          0          0          0   entry7b.o
         0          0          0          0          0          0   entry8b.o
         8          4          0          0          0          0   entry9a.o
        30          0          0          0          0          0   handlers.o
        36          8          0          0          0         68   init.o
         0          0          0          0          0          0   iusefp.o
        30          0          0          0          0         68   llshl.o
        32          0          0          0          0         68   llushr.o
        36          0          0          0          0        108   memseta.o
       736         56          0          0          0        184   printf5.o
         0          0          0          4          0          0   stdout.o
        98          0          0          0          0         92   uldiv.o
       186          0          0          0          0        176   depilogue.o
        50          0          0          0          0         76   dfixui.o
        26          0          0          0          0         76   dfltui.o
       228          0          0          0          0         96   dmul.o

    ----------------------------------------------------------------------
      1508         72          0          4          0       1012   Library Totals
         0          0          0          0          0          0   (incl. Padding)

    ----------------------------------------------------------------------

      Code (inc. data)   RO Data    RW Data    ZI Data      Debug   Library Name

      1018         72          0          4          0        588   mc_w.l
       490          0          0          0          0        424   mf_w.l

    ----------------------------------------------------------------------
      1508         72          0          4          0       1012   Library Totals

    ----------------------------------------------------------------------

==============================================================================


      Code (inc. data)   RO Data    RW Data    ZI Data      Debug   

     25468        974        472         32      52520     664462   Grand Totals
     25468        974        472         32      52520     664462   ELF Image Totals
     25468        974        472         32          0          0   ROM Totals

==============================================================================

    Total RO  Size (Code + RO Data)                25940 (  25.33kB)
    Total RW  Size (RW Data + ZI Data)             52552 (  51.32kB)
    Total ROM Size (Code + RO Data + RW Data)      25972 (  25.36kB)

==============================================================================

